:020000040000fa
:080000000002040000000000f2
:020000040000fa
:100400000f2521000efb27000e01880000000000d0
:100410000c00070060c62700010020001f00070035
:10042000000020000000e000020032000000020096
:10043000000000004ea60200000000000040da00ac
:100440000000fe004440a900206720000000e000fa
:100450000300320000002000a00188004440a800f2
:1004600000000600f03fb1000180b1000600350039
:10047000ee03090000000000403fb1000180b10020
:10048000fbff3d001000b000203fb000020035002f
:1004900000800900000000000000060091018800b3
:1004a000800078000000eb0015003700e28040007b
:1004b00032a0b4009101ba00e280400032a0b40042
:1004c0009102ba00e280400032a0b4000002eb00ca
:1004d000472bde00f507b200602ce10004003a0073
:1004e0000059eb008301e900fdff3e0004003700e6
:1004f0006128e100010032000082eb0004000700e7
:100500001101ba000200e000e8ff3a000000060016
:100510003159ba008301e9000c0032002159ba00b8
:100520008301e900080032000400e00003003a0003
:10053000e280400032a0b400f5ff370011d9ba00c4
:100540008301e900faff3a008100e800e180400001
:1005500032a0b40000000600a894040000000000cf
:10056000c694040000000000949404000000000001
:10057000d694040000000000ec9404000000000089
:1005800026950400000000006e95040000000000a5
:100590009695040000000000688904000000000037
:1005a000426d040000000000e26b04000000000047
:1005b000f26b040000000000086c04000000000062
:1005c000bc6c040000000000566c04000000000039
:1005d000966c040000000000a26c04000000000003
:1005e000cc6c040000000000e06c0400000000007f
:1005f000086d040000000000366d040000000000db
:10060000fc6c040000000000486d040000000000c5
:1006100000a604000000000020a604000000000066
:1006200018a60400000000008481040000000000ff
:100630008c81040000000000a08104000000000084
:100640000c82040000000000508204000000000042
:100650009082040000000000ba8204000000000044
:10066000a259040000000000bc5904000000000072
:10067000d659040000000000f659040000000000f4
:100680007c59040000000000445b040000000000ee
:10069000a85b040000000000585b0400000000009c
:1006a000125b0400000000000c5c0400000000006d
:1006b0007803040000000000ba03040000000000fa
:1006c000d417040000000000000004000000000037
:1006d00080007800010037008100e8000041eb0055
:1006e000914f1100fcff3a0000805000000006000e
:1006f000889fbe00000478001800900082047800f3
:10070000808f5400010036008004780018007800c3
:10071000090178002d000700188c44001800900093
:100720008904500019049800080078004f04be00a6
:10073000000006000400fa00e08f500003003a00b9
:100740000f80e900e0bf9f0002003700e0bf9f007c
:100750008100e900f1bf9f00e4805700803720004e
:1007600021000700efb897008048eb000080fa00f6
:1007700000000600889fbe00000478000100780099
:1007800082047800880178000901780011002000b7
:10079000cc000700890f5000010032000004eb007c
:1007a000080078004f04be00000006000000fa00b8
:1007b000e88157004fb9970081bd2000a03b200081
:1007c000140107000080fa00000006008001780094
:1007d00002003700b15978000201e900e00f510032
:1007e000fcff3a00000006006200fa00889fbe008d
:1007f0008a9fbe008c9fbe000005780081047800af
:10080000020478008300780020f92f000f004000d8
:10081000b7010700ea8f9f00f98f9f000000eb00ef
:10082000809f9f008df42000ccf32000fbff270069
:10083000184078000085fb008a04fb000a05ea00e6
:100840004f55de0050022000808f54000d00320012
:10085000e10f55000b003a000a017800880078008b
:100860007f889700ef89970003000100f08f9f00b9
:10087000e00f50008d0032000f9897000000e80054
:10088000809f9f000a04440050022000808f540083
:1008900004003200e08f5400e5ff3a000f98970003
:1008a000830037000000eb00e0979f00d0979f0087
:1008b000c0979f00b0979f00a0979f0090979f00c0
:1008c000a09f9f00070037000d005000000040006f
:1008d0006c007800af98970000807000a09f9f0088
:1008e0000804e800984478008900fb0080f42000a8
:1008f00081010700e00f5000f3ff3a00a1c2b300ee
:1009000081cf54000e003a009f8897000180e900d3
:10091000908f9f0010007800909f9f00e00f500084
:1009200005003d000000ea00909f9f002f9897006f
:100930000020a000a09f9f000804e8000f003700df
:10094000909f9f00080037001f9897008b0f500062
:10095000040032006a00b9000003b1000200400048
:10096000909f9f000804e8001801fb0000fd2f0085
:1009700002004000e90f5000f3ff3600e0c2b30070
:10098000984f1000030032000080eb00f0979f00aa
:100990001a003700a0c2b300d84f100007003a0079
:1009a0009f8897000180e900908f9f0010007800d9
:1009b000f0979f000804e800100037000000eb00eb
:1009c000f0979f00080037007f9097008b0f500032
:1009d000040032006a00b9000003b10002004000c8
:1009e000f0979f000804e8001801fb0000fd2f00ad
:1009f00002004000e90f5000f3ff360098447800f1
:100a00008900fb0040f320003b010700e00f50008d
:100a1000020032000804e80001003700804478003a
:100a2000e9779f0080c6b30080cf540004003a00ed
:100a300098cf14000a003a006640500006003700c4
:100a4000c0c6b30080cf540005003a0098cf140010
:100a500003003a0065404000e0779f000804e8008a
:100a600083fb2f008f8141001841780021f92f006e
:100a70008f80400040f92f000f0040002701070041
:100a8000e00f500009003a0081fb2f008f804000ea
:100a900040f92f000f00400094020700e00f5000c3
:100aa000020035000804e80061ff37000080eb0019
:100ab0004f06be004f05be004f04be000080fa0086
:100ac00000000600889fbe008a9fbe008c9fbe006b
:100ad0008e1f780081067800030478000d95b90018
:100ae0000a077800e00f550043003200e08f5600ff
:100af0004200320000067800c800900068009000b4
:100b0000808f50000400390008007800330307008c
:100b1000e00f5000260035000040200098056000de
:100b20000a0032000a017800a10020000c007800c1
:100b30007103070080057800e08f55000300320044
:100b4000e104160089844500010037008a0478001a
:100b500048009000e800900080805000898f50008d
:100b600002003100810478008005eb000901780063
:100b70008c00780015ff070009055500480090001b
:100b80000900400040049800e08f55000400320046
:100b90000800780061030700e00f500004003a00ed
:100ba000e00f55000200320009064600d2ff370070
:100bb0000080200018006000020032000800780069
:100bc0005603070000c02000180060000200320039
:100bd00048009000600498000a0557000001780062
:100be000811f7800110009000d85d8000001fd006b
:100bf000cf007800010037000a0178000200780079
:100c00004f0778004f06be004f05be004f04be00e0
:100c1000000006006200fa00889fbe008a9fbe00a6
:100c20008c9fbe00000578008104780002047800e3
:100c30008300780020f92f000f004000ac0007006f
:100c4000ea8f9f00f98f9f000000eb00809f9f00bc
:100c50002df620006cf52000fbff270018407800df
:100c60000085fb008a04fb000a05ea004f55de0000
:100c700050022000808f54000d003200e10f55001b
:100c80000b003a000a017800880078007f889700fe
:100c9000ef89970003000100f08f9f00e00f5000e4
:100ca0008d0032000f9897000000e800809f9f00a1
:100cb0000a04440050022000808f540004003200d7
:100cc000e08f5400e5ff3a000f989700830037004b
:100cd0000000eb00e0979f00d0979f00c0979f0017
:100ce000b0979f00a0979f0090979f00a09f9f00a4
:100cf000070037000d005000000040006c00780035
:100d0000af98970000807000a09f9f000804e80043
:100d1000984478008900fb0020f620007600070048
:100d2000e00f5000f3ff3a00a1c2b30081cf54009e
:100d30000e003a009f8897000180e900908f9f0085
:100d400010007800909f9f00e00f500005003d00cc
:100d50000000ea00909f9f002f9897000020a000bd
:100d6000a09f9f000804e8000f003700909f9f009d
:100d7000080037001f9897008b0f500004003200c6
:100d80006a00b9000003b10002004000909f9f007c
:100d90000804e8001801fb0000fd2f0002004000dd
:100da000e90f5000f3ff3600e0c2b300984f100087
:100db000030032000080eb00f0979f001a0037001c
:100dc000a0c2b300d84f100007003a009f889700d8
:100dd0000180e900908f9f0010007800f0979f003d
:100de0000804e800100037000000eb00f0979f00b7
:100df000080037007f9097008b0f500004003200ee
:100e00006a00b9000003b10002004000f0979f00a3
:100e10000804e8001801fb0000fd2f00020040005c
:100e2000e90f5000f3ff3600984478008900fb007a
:100e3000e0f4200030000700e00f50000200320014
:100e40000804e8000100370080447800e9779f003b
:100e500080c6b30080cf540004003a0098cf14003d
:100e60000a003a006640500006003700c0c6b300d2
:100e700080cf540005003a0098cf140003003a00d8
:100e800065404000e0779f000804e8001801fb007f
:100e900083fb2f008f81410021f92f008f804000bc
:100ea00040f92f000f004000db020700e00f500068
:100eb00009003a0081fb2f008f80400040f92f008d
:100ec0000f00400089010700e00f500002003500cc
:100ed0000804e80061ff37000080eb004f06be0009
:100ee0004f05be004f04be000080fa00000006005f
:100ef000010878000000060003003700e04f5100b1
:100f0000050032000000e80010417800814f5100d8
:100f1000faff3a000000060000000500889fbe00ae
:100f20008a1f780000047800824478000305780066
:100f300070c6b30080cf540021003c0000c0e9001f
:100f400080cf5400d7003d007240500080cf540045
:100f5000430132000d003c006c40500080cf540033
:100f600056013c0000c0e90080cf5400cd003d0098
:100f700050c2b30080cf54004d0132007c4040008d
:100f800080cf54004d013a00c600370010c6b300b0
:100f900080cf5400c300320004003c006940500080
:100fa00080cf540045013a006c00370030c6b300d2
:100fb00080cf5400180032000040e80009003700dc
:100fc00000c7b30080cf54001601320008003c0077
:100fd00000c0e90080cf5400db0032005f003c001d
:100fe0006540500080cf540034013a000f003700b4
:100ff00050c7b30080cf5400580032006340400017
:1010000080cf5400550032006540500080cf54001e
:101010002a013a00120137001181e90082087800a4
:1010200078009000127578002a013700286090003f
:10103000c2c6b300824f500009003a001100780088
:1010400064025000840878001400be00140290006e
:101050004fa2de00040178008401780012003700fe
:1010600012c7b300824f500003003200a2c6b30083
:10107000824f500006003a001101780068005100cc
:10108000800878005001be004000be000600370016
:101090001180e9008008780010007800cf80de0021
:1010a0000101780082017800009cbe000294be001d
:1010b0002862900085c6b300854f52000e003200b2
:1010c00025c6b300854f520005003a000000fb0022
:1010d000cf80de000101780082017800090037002e
:1010e00045c7b300854f520003003200e6c24200fc
:1010f000854f520005003a00cf80de0001017800e4
:1011000082017800009cbe000294be003802be003e
:101110002803be0078009000d1c2b300e00f520057
:10112000e08f5a00e00f5b00e08f5b0008003500a5
:10113000881090006281600002003200b1c2b300ea
:1011400003003700e18060005100320001c2b300ab
:10115000017578000000e8004c003700286090001e
:10116000c2c6b300824f500007003a001100780059
:1011700064025000840878001400be000001eb00f7
:10118000820178001200370012c7b300824f50006e
:1011900003003200a2c6b300824f500006003a009e
:1011a0001101780068005100800878005001be00ed
:1011b0004000be00060037001180e900800878007a
:1011c0001000780001002000020020000300200031
:1011d000009cbe000294be002862900085c6b30049
:1011e000854f52000e00320025c6b300854f5200d5
:1011f00005003a000080fb000100200002002000f2
:10120000030020000900370045c7b300854f520096
:1012100003003200e6c24200854f520005003a004a
:10122000010020000200200003002000009cbe00fe
:101230000294be00081090006800600014003200a4
:101240003800be002801be00e00f5000e08f5800bb
:10125000e00f5900e08f59000d00320080c7b30045
:1012600080cf54000300320080c5b30080cf54000b
:1012700007003a00f800900000c3b30000f57800c2
:101280000100e800097578000180e800700498000a
:1012900078009000000545006a04980089407800b5
:1012a0006c00370028619000c0c4b300804f51002b
:1012b00006003a00110178006800510080087800ab
:1012c0005001be004000be0005003700110178004b
:1012d00064005100800878001000be00500d070027
:1012e000009cbe000294be00b80090007800900000
:1012f000e08f500002003d00d1c2b300080037006b
:10130000881090006281600002003200b1c2b30018
:1013100003003700e18060000400320001c2b30026
:10132000017578000000e8007004980078009000d3
:10133000000545006a04980089407800080078009c
:10134000f80207006500370028609000c3c6b300ac
:101350001181e900834f5000260032000a003c0052
:10136000e4c15100834f50001f00320083c1e800e8
:10137000834f500013003200e8c15100834f5000ea
:1013800022003a000a00370043c7b300834f5000e1
:1013900015003200e6c14100834f500012003200b8
:1013a000e9c15100834f500018003a000500370092
:1013b0008208780012007800485c900008487800a5
:1013c0004600370082087800120278006808900012
:1013d000cf80de000101780082017800009abe0013
:1013e0000292be003d0037008208780012007800ab
:1013f0000900370082087800120178006808900020
:10140000cf80de000089be00340037001180e90083
:101410008008780010007800680c900008087800b8
:101420002e0037001180e900800878001000780055
:10143000cf80de000101780082017800009cbe00b0
:101440000294be0078009000000545006a049800f0
:1014500081c7b30008007800e20407001f003700ce
:101460001180e90080087800100578006a0498006f
:10147000d80c9000e08f540004003d000a00780072
:1014800093fc07008004780007003700090178000a
:101490008000eb000a00780017010700e00f500001
:1014a000010032008a045000190c98000b0037002c
:1014b00078009000097578000600370078009000e9
:1014c00000054500e0cf540001003a0059c2b300c6
:1014d000094d78000000e800700498000000eb005f
:1014e0004f0578004f04be00000006000400fa001b
:1014f000889fbe008a9fbe008c1f78000004780081
:1015000001067800f80d9000780090008085550065
:1015100008089000808555001808900080855500c7
:10152000a80c900089855500b80c9000898555005d
:10153000c80c9000898555000002220090bf9f00d2
:1015400000032300a0bf9f0008109000640060000b
:1015500015003a00e08f5500130034000b057800a9
:101560008a047800e20f55000100360029002000af
:10157000c801900009017800ee80570058009000e3
:101580000300010050049800e00f50008c0032006e
:101590006808900009004000600c9800090555009b
:1015a0004240a900eeff3c0078019000e00f51009e
:1015b0000c003400c80190008c00780058009000a6
:1015c00003000100500498008080eb00e00f500001
:1015d0007c003200e8089000780090000080400015
:1015e000600c9800880c9000e08f540011003400cb
:1015f00009057800e28f5400010036002a0020001f
:10160000c80190000a017800ec8057005800900053
:101610000300010050049800e00f50006800320001
:10162000680890000a004000600c98008a8454000a
:10163000edff370018099000e00f51000c00340056
:10164000c8019000e80090005800900003000100dd
:10165000500498008080eb00e00f500059003200e9
:10166000e80890001808900000804000600c980086
:10167000a80c9000e08f5400110034000905780098
:10168000e28f5400010036002a002000c8019000bb
:101690000a017800ec805700580090000300010018
:1016a00050049800e00f5000450032006808900098
:1016b0000a004000600c98008a845400edff370057
:1016c00038099000e00f51000e003400e80090004f
:1016d0001808900080804000c801900058009000d9
:1016e00003000100500498008080eb00e00f5000e0
:1016f00034003200e8089000380890000080400074
:10170000600c9800c80c9000e08f54001100340069
:1017100009057800e28f5400010036002a002000fd
:10172000c80190000a017800ec8057005800900032
:101730000300010050049800e00f50002000320028
:10174000680890000a004000600c98008a845400e9
:10175000edff370088109000e4806000190032002f
:101760008000eb00818f5500160034008b04780058
:1017700009057800e28f5400010036002a0020009d
:10178000c80190000a017800ee80570058009000d0
:101790000300010050049800e00f500008003200e0
:1017a000680890000a004000600c98008a84540089
:1017b0004240a900eeff3c008000eb000100370032
:1017c0008080eb00010078004f0678004f05be00d6
:1017d0004f04be000080fa0000000600889fbe0093
:1017e0008a1f780000047800c8009000680190000b
:1017f0000000eb00828f50003c0039001800780098
:101800002200290002016000e20f510007003200af
:1018100001202400e00f500001003d0001202000c5
:10182000008c70000080eb003000370002002600c2
:1018300002006000820f500009003a00380090005a
:10184000808f500006003900080078003300070040
:10185000800078000080eb00e08f500023003a0009
:101860001805780000c020000000650018003a004c
:10187000a80490006002200008004000808f5400ff
:1018800013003a00002020004e05070020049800b5
:10189000e00f500005003a00290498004904980020
:1018a0008904e80039049800080037000a60a000a5
:1018b0000a0c78004004980001202000808040003d
:1018c00031049800400c9800500c980069050700fe
:1018d00028009000500498003800900060049800a0
:1018e00000002600180c70000000eb004f05780087
:1018f0004f04be00000006000400370090cf100027
:10190000050032000000e8000201e900e00f51008c
:10191000faff3a000200780000000600889fbe002f
:101920008a1f780000047800e00f54000e003a008f
:10193000880478008ac22000098044006a00780088
:10194000e00f500004003200f4ff0700e00f5000e9
:1019500001003d000084eb008904e800e78f54009b
:10196000f5ff340028003700000022001800600056
:1019700024003200a80490000f0037000901510034
:10198000384090000000fb00890078002108070023
:10199000e00f500007003c00280090004004980031
:1019a00060049800500c98001890a0000084eb0090
:1019b000150037008084440048019000828f540055
:1019c000eeff39002800900040049800980078004d
:1019d00002c020000281600001003a00380090003f
:1019e000020024008280600003003200600498003e
:1019f0000004eb0004003700500c9800010478004c
:101a00000100370000047800080078004f057800d6
:101a10004f04be0000000600889fbe008a1f7800a9
:101a2000000478000242780083027800e0c6b30028
:101a3000804f5200d200320015003c006b40500035
:101a4000804f5200240032000a003c0070405000d9
:101a5000804f52001001320065404000804f52001c
:101a60007200320050c2b300804f520021013a0090
:101a70001d01370040c6b300804f52001b003200ea
:101a800065404000804f52001a013a0017003700ad
:101a900030c7b300804f5200ff00320007003c0007
:101aa00064405000804f5200600032000040e80067
:101ab000804f52000f013a00e800370050c7b300d2
:101ac000804f52005900320063404000804f520066
:101ad00008013a00550037001181e90082087800ba
:101ae000780090009272780008013700286090001a
:101af000c2c6b300824f500009003a0011007800be
:101b000064035000860878001600be00160390009b
:101b10004fb3de000601780086017800150037001b
:101b200012c7b300824f500003003a001101780041
:101b30006800510005003700a2c6b300824f500074
:101b400006003a0091017800688051008008780012
:101b50005001be004000be00060037001180e900c1
:101b60008008780010007800cf80de000101780046
:101b700082017800009cbe000294be0028639000a1
:101b800087c6b300874f53000e00320027c6b3004c
:101b9000874f530005003a000000fb00cf80de00b5
:101ba00001017800820178000900370047c7b300bf
:101bb000874f530003003200e6c34300874f5300b2
:101bc00005003a00cf80de00010178008201780034
:101bd000009cbe000294be00780390003800be0056
:101be0002801be00e00f5000e08f5800e00f5900c0
:101bf000e08f590002003d00d1c2b3000800370059
:101c0000881090006281600002003200b1c2b3000f
:101c100003003700e18060005400320001c2b300cd
:101c200081727b000600e8004f00370028609000ba
:101c3000c2c6b300824f500007003a00110178007d
:101c400064035100860878001600be000001eb0016
:101c5000820178001500370012c7b300824f500090
:101c600003003a00910178006880510005003700b8
:101c7000a2c6b300824f500006003a00110178005e
:101c800068005100800878005001be004000be008e
:101c9000060037001180e900800878001000780005
:101ca000010020000200200003002000009cbe0074
:101cb0000294be002863900087c6b300874f53008c
:101cc0000e00320027c6b300874f530005003a00cc
:101cd0000080fb0001002000020020000300200023
:101ce0000900370047c7b300874f53000300320095
:101cf000e6c34300874f530005003a00010020006f
:101d00000200200003002000009cbe000294be00e0
:101d10000810900068006000140032003800be0017
:101d20002801be00e00f5000e08f5800e00f59007e
:101d3000e08f59000d00320080c7b300804f520081
:101d40000300320080c5b300804f520007003a0004
:101d5000f800900000c3b30080f278000100e800b2
:101d6000847278000180e800700498007800900088
:101d70008082420065049800844078004300370068
:101d800028609000c3c6b3001181e900834f500062
:101d9000260032000a003c00e4c15100834f50008d
:101da0001f00320083c1e800834f5000130032004f
:101db000e8c15100834f500022003a000a0037006a
:101dc00043c7b300834f500015003200e6c1410005
:101dd000834f500012003200e9c15100834f500080
:101de00018003a00050037008208780012007800d9
:101df000485c900008487800460037008208780068
:101e00001202780068089000cf80de00010178009f
:101e100082017800009abe000292be003d003700a9
:101e200082087800120078000900370082087800e4
:101e30001201780068089000cf80de000089be00a3
:101e4000340037001180e900800878001000780025
:101e5000680c9000080878002e0037001180e90017
:101e60008008780010007800cf80de000101780043
:101e700082017800009cbe000294be0078009000b1
:101e8000808242006504980081c7b3000800780092
:101e9000540207001f0037001180e9008008780015
:101ea000100578006a049800d80c9000e08f540068
:101eb00004003d000a00780005fa0700800478005d
:101ec00007003700090178008000eb000a00780065
:101ed00089fe0700e00f5000010032008a04500024
:101ee000190c98000b00370078009000847278007d
:101ef000060037007800900080824200e04f5200d8
:101f000001003a0054c2b300844a78000000e8009f
:101f1000700498000000eb004f0578004f04be00ed
:101f200000000600cf04b000889fbe008a9fbe005c
:101f30008c9fbe008e1f7800c0b79f0001477800bd
:101f4000800078005101be004100be00d0979f0084
:101f5000e1979f00f2979f00839f9f0010c6b300f8
:101f6000804f57001500320010c4b300804f570057
:101f7000120032004fb1970052089000e00f50005d
:101f800003003d0060002000500998000b0037005e
:101f9000e00f500009003a0070c6b300804f5700b0
:101fa0000300320070c4b300804f570003003a00b2
:101fb00010002000cfb19700d0099800cfb0970053
:101fc00080fa2f000f004000030407008001780012
:101fd000e28f510012003a00300020004fb297000b
:101fe000100a980080cb200011c6b300814f570023
:101ff00008003200e4c04000814f57000500320065
:10200000c0cb20008140e800814f570001003a001a
:1020100080cb20004fb19700e20090001300370002
:10202000e08f51001600340030002000cfb197003f
:102030009009980000cc200011c6b300814f5700d2
:1020400008003200e4c04000814f57000500320014
:1020500040cc20008140e800814f570001003a0049
:1020600000cc20004fb29700e4009000b048780008
:10207000b06878001040780090409800d301370095
:1020800010c6b300804f57000300320010c4b300e5
:10209000804f570011003a004fb097006001900048
:1020a00000c3b30000597800cfb09700e200980059
:1020b00080c7b30011c6b300814f57000100320042
:1020c00080c5b300005978004fb2970062029800b3
:1020d000740090000080e80070029800e08f5100ca
:1020e00005003a00c3979f00d3b79f0022fb2f0043
:1020f0000f014100b001370010c6b300804f5700f8
:102100000600320010c4b300804f5700ac003a0004
:1021100090cd2000a0b79f000200370081cc2000a6
:10212000a1b79f004fb19700520890001302200002
:10213000d3b79f00e00f5000020035000000e80018
:10214000d0b79f005fb297000404e8006022b80097
:102150006033b8005f909700ef9097007f919700f1
:102160008f9997004d090700cfb097003102be004c
:102170002103be00e00f500001003d0007f0a20067
:10218000d4979f00e5979f00f6979f00879f9f0039
:102190004f91970064015100c2979f000040eb00ef
:1021a000a0779f0033fb2f0083814700b3b79f00c8
:1021b0000e427800a4e79f0008077800320037003d
:1021c000c201200003002000a0fa2f000f004000f1
:1021d000ab0307005f949700ef9497007f959700fb
:1021e0008f9d97000800be000a01be001808070076
:1021f0000006be00670757004240a9000c003400eb
:102200009b0707000002be000203be000800be00dc
:102210000a01be009d0807000002be000203be00c6
:10222000d4979f00e5979f00f6979f00879f9f0098
:102230003fb09700e7004000700020000500370025
:10224000ef6066004c69dd004466de000c0671003c
:10225000c4eede00e00f5600e08f5e0004003400a4
:102260000000e900f6ff3b00010037008060eb0052
:102270000000e900fdff3b00e7804000b1b79f0090
:10228000e00f5700090034006022b8006033b80046
:102290005f909700ef9097007f9197008f9997003c
:1022a0007c080700e00f5000c5ff3c002fe79700b7
:1022b00032fb2f000f0141003fb297008201520014
:1022c0005fb09700808f510004003d00e08f510007
:1022d0000d003d00d3b79f0031003700dfb09700fd
:1022e000838f500009003d0022fb2f000f014100a9
:1022f0000280400010409000f2c0b300e74f500051
:1023000003003c0001003700d3b79f000041eb0001
:10231000dfb1970003027800010037000402e900f2
:102320008301e90030fb2f000f00400083004000d4
:1023300011407800824f5000f8ff3200d4b79f0060
:10234000ef4f510001003a008048e800e08f510053
:1023500009003d00dfb097008100e800d1b79f0081
:102360004f91970064014100c2979f0022fb2f000c
:102370000f0141000200370032fb2f000f01410026
:10238000dfb1970004003700030041009000fb001c
:102390002fb2970064c878008301e900faff3b0080
:1023a000cfb0970051089000e00f500002013d00af
:1023b000dfb197000300e900d0089800fe00370065
:1023c0005f949700ef9497007f9597008f9d9700fb
:1023d0006022b8006033b8000800be000a01be00e9
:1023e000ae080700e00f500005003d000bf0a20012
:1023f000d8979f00e9979f00fa979f008b9f9f00b7
:102400004f909700cf80de00725927000300200014
:10241000420c0700026a280013002000e4050700b0
:1024200064005000c0979f001c003b006300100038
:10243000c1ff2f00010460000802ea00c4979f005a
:102440000006eb00adce20001100370061006400f3
:102450000d0032004360dd00008046003002be0007
:102460002003be005f909700ef9097007f91970048
:102470008f99970001070700d0979f00e1979f0071
:10248000f2979f00839f9f000884d1000c06e8000c
:10249000e00f5400edff3c0021003700e00f50003a
:1024a0001f003200c8ff2f0008046000c8979f007b
:1024b0006000b8000200200003ff23000006eb00cc
:1024c000adce200009003700610264000500320033
:1024d0004362dd00048246005403be004402be0095
:1024e000e60607000884d1000c06e800e00f54005f
:1024f000f5ff3c000002be000203be005f909700a3
:10250000ef9097007f9197008f9997006a080700d6
:10251000d0979f00e1979f00f2979f00839f9f00b5
:102520004fb097005009900060c6b300804f57002d
:10253000040032006100200060c4b300804f5700e7
:1025400002003a00cf919700ea804100828040006b
:10255000f38f5000010034003101200000c3b300ac
:10256000a0779f003dfb2f008f8646000045780036
:102570008e45780001077800330037005fb0970080
:10258000efb097007fb197008fb997003007070031
:102590000004be00680757004240a9001000340044
:1025a000b30607000002be000203be005fb0970042
:1025b000efb097007fb197008fb99700b30707007e
:1025c0006022b80046782d0077192400ab0607007a
:1025d000d0979f00e1979f00f2979f00839f9f00f5
:1025e000e88646008c0020000801be000c00370081
:1025f000a400200005002000a0fd2f000f004000d7
:10260000190307005fa89700efa897007fa997001c
:102610008fb1970004c3b300846641000001be007f
:10262000e00f5100e08f5900040034000c06e9006f
:10263000efff3b00010037008a6678000c06e900d6
:10264000fdff3b00e8864600e00f57000e00340017
:102650005f909700ef9097007f9197008f99970078
:10266000d0b79f00e1b79f00f2b79f0083bf9f00e4
:102670006022b8006033b800860707008000780049
:10268000e08f5000bdff3c000b47780032fb2f006d
:102690000f01410082825600cf909700e7804000f2
:1026a000c1979f0000c3b300050037008502e90011
:1026b000cf9197008301e900c3979f000201e800d2
:1026c000924f1000f9ff32004fb29700d4089000eb
:1026d00060c6b300804f57000300320060c4b300ef
:1026e000804f570003003a004f9097008001e800a8
:1026f000090037001300200050c6b300804f570078
:10270000050032000e40780050c4b2008081fb000a
:102710008301e900cf19de0081804100d1b79f001d
:10272000858f500001003400d5b79f00dfb19700be
:10273000e08f51002000350004c3b300858f5100a5
:1027400006003d00e2c079006942420040c3b30088
:1027500080cf500001003c0069425200dfb1970079
:1027600083007800010037008100e9008301e9005f
:102770008302410015407800844f5000faff320078
:10278000d1b79f0091c3b300814f520001003a00be
:10279000804ae800e08f510007003d000201e90097
:1027a0005fb297000402e800d4b79f004f909700f3
:1027b0000000e800c0979f004f929700dfb197009c
:1027c0008e4078004fb09700bc0207004f0778009a
:1027d0004f06be004f05be004f04be00cf04b1003f
:1027e000000006004f02b000889fbe008a9fbe0016
:1027f0008c9fbe008e1f78000006780080c5b30055
:1028000080cf50000a0032007740400080cf500057
:102810000a0032006940400080cf50000b003200b7
:1028200050f0200080bf9f00ae0020000a0037005b
:1028300042ef200082bf9f000600370053f02000c7
:1028400083bf9f008e0020000300370054f020005b
:1028500084bf9f000e0120003c02be002c03be007e
:102860000605be000404be0040c6b30080cf500081
:10287000030032006540400080cf50000b003a005a
:10288000e00f5200e08f5a00e00f5b00e08f5b002a
:1028900006003d006044b8006055b80004045400d0
:1028a00085845c0006055d0087855d00e80f5700a4
:1028b00003003200f00f57003a003a0002003700e0
:1028c000300020000100370040002000e00f5400dd
:1028d000e08f5c00e00f5d00e08f5d0004003a00d7
:1028e000dc0890008d012000e08f500006003200cf
:1028f0008e00e900888060008fba9700e5c07800fc
:10290000f1e79f007d012000800078008100e90050
:10291000050033008b05d1000a85d3008984d300dc
:102920000884d300f9ff3700089ebe000a96be0057
:102930008e00e900110037008d06e9000481600077
:102940008fb997006344790003fd2f008f81410008
:1029500088f17e00000178000201e90005003300e3
:102960008783d1000683d3008582d3000482d300fd
:10297000f9ff3700049ebe000696be003c02be0072
:102980002c03be00e00f5200e08f5a00e00f5b0006
:10299000e08f5b00a1003400e08f5600e6ff3c00b2
:1029a0009e003700ac60900080c6b30080cf50001e
:1029b0000b00320006003c00e0cf5000080032005f
:1029c0006640500080cf500058003a0004003700a5
:1029d000c0c6b30080cf500054003a002a00370030
:1029e000e00f540004003a005c0890008d012000c4
:1029f000e00f500007003200110009000e84d800db
:102a00008000fd008fb9970063407800f0e79f00d9
:102a10007d01200000027800811f7800110009006c
:102a20000e84d8000002fd00cf0078000c003700b3
:102a3000110009000e02d800000178008d06e9009f
:102a40000e90b900000052000fba9700e4427800df
:102a500004fd2f000f02420005f27e000202780002
:102a6000e00f520002003200e08f5600f0ff3c0001
:102a7000cfa2de000503780086037800049ebe0026
:102a80000696be0065003700e00f5400e08f5c0042
:102a900004003a005c0890008d012000e00f500017
:102aa000070032006171b9000800be00a10a0700ea
:102ab0000fb9970062417800f2e79f007d01200086
:102ac0006175b9000a01be000800be005805070084
:102ad0000b0037000a01be000800be0034040700e6
:102ae0008d06e90000f1b900020154008fb997008a
:102af0006342790003fd2f008f81410084f17e0045
:102b00000004be00e00f5000e08f580002003200c9
:102b1000e08f5600efff3c00088ebe004fc8de007d
:102b200020069800300698003c003700e00f540063
:102b3000e08f5c00e00f5d00e08f5d0004003a0074
:102b40005c0890008d012000e00f50000b00320067
:102b50000e027800cfa2de0005037800860378001d
:102b60000800be000a01be00b80407008fba970033
:102b7000e5427800f5e79f007d0120000e00780017
:102b8000cf80de000101780082017800c0b79f008d
:102b9000d1b79f00e2b79f00f3b79f000203be00ca
:102ba0000002be000800be000a01be00a00407002b
:102bb0000f0037004fb29700dfb297006fb3970056
:102bc000ffb397000800be000a01be00a30407007f
:102bd0008d06e90000f2b900040454000fba970012
:102be000e4427c0004fd2f000f02420005f27e004b
:102bf000009ebe000296be003c04be002c05be0036
:102c0000e00f5400e08f5c00e00f5d00e08f5d009e
:102c100002003400e08f5600e6ff3c00e80f57004a
:102c200010003a000c109000680060000d003200a7
:102c3000f78f560006003e0008fd2f000f044400e9
:102c4000e8c07e0000c3b30080cf50000500320012
:102c50008d06e90002c3b30001fd2f008f80400004
:102c600082f07e0078811600120e98006c009000b1
:102c700003fd2f008f8141008d804100d3f60700b6
:102c80001c089000dc089000810f500006003d00f9
:102c900000805000000e98000c1090000040a10031
:102ca000001698000f003700e08f50000d003d0027
:102cb0008c109000f4806000f08f500009003a0002
:102cc0007c099000fc009000810051000c099000ec
:102cd00082805000008050004240a9000100340072
:102ce000000e98004f0778004f06be004f05be004b
:102cf0004f04be004f02b10000000600889fbe00d6
:102d000000047800f1808000e08f50000200320063
:102d1000010078000d0037000181800000022100d1
:102d200004003700910f5400240036000180e800b1
:102d300091009000e08f5000faff3a001000370039
:102d4000920f54001d0036000280e8001001780048
:102d5000e00f5100faff3a00110178000181800074
:102d60000002210004003700910f540013003600c8
:102d70000180e80091009000828f5000faff3a0035
:102d800019818000888f5400010031008804780088
:102d9000090078007c020700e00f500004003a00b0
:102da000888f5400050032008904d100f5ff3700f8
:102db000091878007e020700d2ff37004f04be00da
:102dc00000000600881f78008000780063844000bf
:102dd0000800a1000000eb00810f54002100360024
:102de000e30f540001003e00480020000800780076
:102df000c2ff0700e00f50001a0032009000780078
:102e00009101780064815100880f51000300310066
:102e10001101900002087800070037000881400087
:102e200002087800910190001301980010017800c9
:102e3000110914008808780010007800e00f500095
:102e40000600320010019000e00f51000200320035
:102e50000080e8000100370002007800f080880060
:102e60000180e8004f04780000000600407d21004a
:102e700082023700881f7800880421000040eb00a0
:102e8000984f100003003a00f8ff070020c0b3007d
:102e9000004c78004f04780000000600889fbe00b8
:102ea00000047800080078009cfa0700800478008d
:102eb000000420001800600002003200280090008a
:102ec0003b0207000000eb0020049800384090000f
:102ed000e04f5000050035000000fb00fe02070037
:102ee000e00f5000010032008084eb0018109000c9
:102ef000e00f50000800320002030700e00f50000e
:102f0000010032008084eb001810900028020700b6
:102f10000000eb001014980000082000180060006a
:102f2000100032008000eb0082c2200001804000cf
:102f3000e2017800888f510004003a0081c220002d
:102f4000008040000008eb00030037008100e8002b
:102f5000e78f5000f5ff36000800780014020700e4
:102f60000e003700000c780000c0eb0030449800e1
:102f700061022000888040002104980041049800ec
:102f800051049800410c980061049800510c98007d
:102f90007104980076004400000c98000900780045
:102fa0004f04be0000000600889fbe00780020008d
:102fb00089c220000800440069007800e00f50003a
:102fc00001003200b5ff07000804e900f9ff3b00eb
:102fd0004f04be0000000600889fbe0080047800f9
:102fe000668440001800d0004500de00f27f20001b
:102ff000820f500010003a00800ceb00180478009b
:103000006f016400200020001b003a0021019000a5
:10301000e00f510018003a0011019000e00f51003c
:1030200015003a0010002000910f1100120032002c
:103030002000200010003700e00f500004003a008c
:103040000100780019020700e00f500008003c0062
:10305000f20028001801610001fe2300010c71003c
:1030600021c02f00810c40000080eb0002003700df
:10307000800ceb000000eb004f04be0000000600d7
:103080000400fa00889fbe0000047800e6044400b3
:10309000190078008000d000c508de00f47f200011
:1030a000848f50000e003a00ef00600020002000e6
:1030b0006a003a00a8009000e08f500067003a00d4
:1030c00098009000e08f500064003a00100020004b
:1030d000988f100061003200200020005f00370050
:1030e000e08f50000a003a0008007800c2bf9f003d
:1030f000d3bf9f00ed010700800078000000eb00c7
:103100004fb99700dfb99700808f500053003c0003
:103110006108b9000001410081814900e07f200081
:10312000800f5100e08f59000e0034008000eb004a
:10313000998f100004003d006000b80002002000dc
:1031400003ff2f00030037006000b80002002000da
:1031500003ff2700009cbe000294be001000200068
:103160003e003700e00f5100e08f590005003400a9
:103170004411dd00f000280019006000800c71008f
:1031800035003700190078000400280004026000b0
:103190006f0060000040a000800c780061015100c9
:1031a000e0815900c0fc2f00f1ff2f00800f51007b
:1031b000818f590006003d00840c78000000eb0070
:1031c0002004980010049800000c780023003700b9
:1031d0008880e8006400440005003700110c780086
:1031e0009008780019087800800ceb00700141000d
:1031f000ef0f4100f9ff35000200ea001500320030
:103200008800780070011000d1027800822add0069
:10321000980178008019de00038c72006404440079
:1032200098027800822add00910178008019de0082
:1032300083887200990078000209dd009800780008
:103240008008de00010c7100990078000008de00a3
:10325000800c7800990c72000080eb004f04be00d7
:103260000080fa0000000600889fbe008a9fbe0012
:103270008c1f7800000678000205be000404be0022
:103280000401be000a00be0049020700008ebe0015
:103290000801be00a10807000002550081825d0000
:1032a00024069800350698000c0078004f06780038
:1032b0004f05be004f04be0000000600f087470027
:1032c000889fbe008a9fbe008c9fbe008e1f780024
:1032d0000004780081447800020678000305780035
:1032e00084057800e00f550002003c001a00200021
:1032f000ac04210060c6b30080cf54000e00320041
:1033000060c4b30080cf54000b00320070c6b3001d
:1033100080cf54000300320070c4b30080cf54004b
:1033200099003a00e48f45007f003500580890006e
:10333000808f55007c003d008b05e80060c6b3001f
:1033400080cf54001000320060c4b30080cf54001e
:103350000d003200081090006800600004003a0080
:1033600058089000800f550001003d005a0c98004d
:10337000580890000b005000500c980002003b00d1
:103380000000eb00500c980018089000e800900036
:10339000e08f550026003c0002c3b3008270780025
:1033a0000000e800100c9800d8089000e08f500052
:1033b00003003c0088109000e880600005003200a7
:1033c00068019000e1c2b300017178000000e800dc
:1033d000100c9800580890008b00ea00810f5000f4
:1033e00001003d008005ea008b00ea00210c9800f6
:1033f000808545005b0c98008a8f550001003400e1
:103400008a0578003b0c9800e800900018089000ae
:10341000008040000b0178008c007800ebf407007e
:10342000580890008b0550004b0c9800be003700e8
:103430008b0f550018003d00008040000a01780005
:103440008c007800e1f407009808900081004500a6
:10345000110c98000a8555002a0c98005808900015
:10346000e00f500003003c0008109000680060006e
:103470000600320068019000e0c2b30000f178005d
:10348000380890000000e800300c980058089000c0
:10349000400c9800a4003700008040000b01780029
:1034a0008c007800c9f407001808900000804500df
:1034b000100c98000b055500d8089000e08f5000c4
:1034c00003003c0088109000e88060000500320096
:1034d00068019000e1c2b300017178000000e800cb
:1034e000100c980058089000800f5500010034001f
:1034f00000057800e8009000180890000080400067
:103500008b0046000a017800b0f40700180890000c
:103510000a004000100c9800580890000a0550005e
:103520002a0c98008000370070c6b30080cf54008a
:103530000300320070c4b30080cf540012003a0080
:1035400058089000800f550004003d0008109000be
:103550006800600001003a005a0c9800580890007a
:103560000000e900500c980002003b000000eb0056
:10357000500c980070c6b30080cf54000a0032008f
:1035800059c4b3000b00370010c6b30080cf5400fd
:103590000700320010c4b30080cf540005003a0089
:1035a00009c5b3000300370059c6b3000100370056
:1035b00009c7b30018089000e80090009c707800dc
:1035c0000000e800100c9800d8089000e08f500030
:1035d00003003c0088109000e88060000500320085
:1035e00068019000e1c2b300017178000000e800ba
:1035f000100c980058089000e00f500010003400a4
:103600000a05e900800f550001003400000578002c
:10361000e800900018089000008040008c00e8004e
:103620000a01780069f40700180890000a004000b9
:10363000100c9800580890000a0550002a0c9800b9
:10364000e8009000180890000080400009587800b9
:103650000007e800e08f550004003500b1c2b30058
:10366000014878008e06780004003700d1c2b3000c
:10367000014878008e0678008b05ea000006eb0012
:103680000b003700a20020008b00780072805700ea
:10369000d30007007fb597008fbd97008b4078005f
:1036a0007c80570001707e000c06e8008a057800d7
:1036b000e08f5500f3ff3c00e10f560013003c0083
:1036c00050c6b30080cf54000300320050c4b30092
:1036d00080cf540003003a008e06780000c3b30088
:1036e000805e7800e00f560008003a0000c3b30087
:1036f000805e7800050037000c06e9007c815700e9
:1037000062407e0001c3b300815e4000e00f5600be
:10371000f9ff3a00e800900018089000008040008f
:10372000808656003d0c98000810900074006000e0
:10373000f00f50000e003a009808900078009000ba
:1037400000804000a808900001004000b8089000e8
:1037500001004000c808900001004000f8089000f7
:10376000810f500002003d0000805000000c9800c6
:103770004f0778004f06be004f05be004f04be0045
:103780000f01b10000000600800078000000eb008f
:10379000808f50000500340001007800e20007002f
:1037a000e10f400001003a000000eb0000000600bd
:1037b000e00f5000300032008000780041027800b5
:1037c000e30f52002c003600610162002a003a002b
:1037d00002818000e00f510002003200828f500011
:1037e00004003100020878000181880016003700cb
:1037f0000301780092019000e08f51000200320036
:10380000818f5100faff39009202780005034100d0
:10381000868f500018003900810f530003003a00d2
:10382000048942008200780007003700e08f5100d1
:103830000300320004824000848f51000e003900e2
:10384000030878001101980011009000e00f50006b
:103850000900320011814000820f500006003a003a
:10386000e20121000009eb001101780090084100fd
:103870001000900090009800000006000100200059
:10388000e08f50000800320001008000e08f5000ff
:10389000050032008100e9000100880081804000bd
:1038a0000200800000b1780000000600e600400041
:1038b000910178000600280006836100ef81610015
:1038c00083087800120020000f003a00a001900049
:1038d000e08f51000c003a0090019000e08f510001
:1038e00009003a00908f110007003a0039003700b4
:1038f00094087800130a7800900978000508780089
:103900007001510002003700640240008081e8002d
:1039100091027800e08f5200f5ff3200120037006c
:1039200094037800cf3bde008582420085887300d7
:1039300093037800cf3bde0094027800858242003a
:10394000058a730093037800878343009002780010
:10395000cf2ade0085897300900278000588420036
:103960000201e90002003700640240008081e800a3
:1039700091027800ef8f5200e9ff36000f00370008
:1039800094037800cf3bdd009002d10005887300de
:1039900093037800cf3bdd009402d100058a7300c9
:1039a00091037800cf3bdd009302d100858973003d
:1039b0009108d1000201e800020037000082e8000f
:1039c000e401400091027800ff8f5200ecff3e00be
:1039d000ef88620091087300020078000000060082
:1039e00080017800811f7800110009008200d80052
:1039f0008001fd00cf007800030878000299b9002b
:103a000002815000120098000000060000c0da0099
:103a1000000006000a00fa00e20f500021003e00fc
:103a200060828000e10f50000600320085232000f4
:103a3000442320002323200000232000e08f520095
:103a400004003a0085222000442220002322200086
:103a500000222000060028009003630002003a00c4
:103a6000870a7800100873000040200013006000ef
:103a700001003a0013a0a000020078000600370001
:103a8000930278000510b200fdff3200b102fb0086
:103a9000050a78000000e900e00f5000f8ff3a0046
:103aa0000800370033002000b3bf9f00c0bf9f0055
:103ab000d1bf9f00e2bf9f006a805700d3ff07007d
:103ac0006fb99700020078000080fa00000006003d
:103ad00000c0da00000006000a00fa001100200011
:103ae000b1bf9f00c0bf9f006a805700f8ff07006a
:103af0004fb897000080fa000000060000c0da000e
:103b0000000006000a00fa0051002000b1bf9f002b
:103b1000c0bf9f006a805700f8ff07005fb897009a
:103b20000080fa0000000600889fbe008004780034
:103b300070828000e00f500004003a000e00070081
:103b40000084eb00e00f5000080035007882800010
:103b5000e08f540005003200090044000600070011
:103b6000e00f500001003d000084eb0008007800e9
:103b70004f04be0000000600e00f500004003a00b1
:103b8000010521007182880080007800060037005e
:103b90008080eb0002252100820f500002003e00d1
:103ba000708288008000eb000100780000000600b1
:103bb000839f68000100e00002003d0060001000eb
:103bc000e08018000300e00002003d0060011100e9
:103bd000e0811900160107004f00e00002003b00e1
:103be00060001000e080180000000600889fbe0002
:103bf0008a9fbe008c1f78000006eb00e00f50008b
:103c0000e08f5800e00f5900e08f590007003d0099
:103c10006044b8006055b8000000540081805c002a
:103c200002015d0083815d001c002000e00f520056
:103c3000e08f5a00e00f5b00e08f5b0007003d0063
:103c40006044b8006055b8000402540085825c00ee
:103c500006035d0087835d000c00a200c40307001b
:103c6000e00f5600060032006022b8006033b80052
:103c70000000520081805a0002015b0083815b00da
:103c80004f0678004f05be004f04be00000006003e
:103c9000889fbe008a9fbe003004be002005be0083
:103ca0000404440085844c0006054d0087854d00c2
:103cb0000898be000a90be0095000700020031007f
:103cc000680040001008e8004f05be004f04be0029
:103cd00000000600889fbe008a9fbe008c1f7800ef
:103ce000000678003c04be002c05be000400540011
:103cf00085805c0006015d0087815d00009ebe003e
:103d0000029ebe0010002000810007000100390063
:103d10000000eb001c0e10004f0678004f05be009f
:103d20004f04be00000006001200fa00889fbe008b
:103d30008a9fbe008c9fbe000205be000004be002c
:103d4000e4b79f00f5b79f0086bf9f0097bf9f0015
:103d50000000eb00d0b79f00c0b79f00b0b79f0036
:103d6000a0b79f0090b79f0000067800fd032000d9
:103d7000dfb197004fb0970003814100bfb09700bb
:103d8000e08f510004003d00660007007e80570070
:103d9000bfff070003003700620007007e80570066
:103da000ccff0700dfb09700e08f50000700350020
:103db00014002000050020006033b80008047200e1
:103dc000898472000a0573008b8573000c06e80075
:103dd0008d0f5600e6ff3400e08f500006003d00d6
:103de0006fb29700ffb297000fbb97009fbb970081
:103df0007e805700a6ff07005fa89700e00f5000e5
:103e000004003a001fb49700afb497003fb5970085
:103e1000cfb597000800be000a01be004f06be00e5
:103e20004f05be004f04be000080fa0000000600ef
:103e3000881f780018002000881f7800baff07004c
:103e40008f87e9004f04780000000600801feb0018
:103e5000b5ff07008f87e90000000600889fbe00bd
:103e60008a9fbe008c1f78004e00070005003d00b1
:103e70005100070009003d005b0007000006eb0051
:103e8000060037005d00070004003d006044b800f4
:103e90006055b800540007001c002000e4ff070034
:103ea000e00f5600010032005a0007004f0678006c
:103eb0004f05be004f04be0000000600889fbe00f4
:103ec0008a9fbe008c1f78003600070003003d006b
:103ed0003900070006003d000400370047000700d6
:103ee00003003d006044b8006055b8003e00070084
:103ef000d6ff0700e00f5600010032004500070022
:103f00004f0678004f05be004f04be0000000600bb
:103f10000440e10005c8e10006d0e10007d8e10057
:103f200000000600cf01de0002817100b2b79f00e1
:103f30004f09de000000400000007100a0b79f00a4
:103f40000fb097004f01de008180400081007100ba
:103f500091b79f007faa9700cf20de0000004000ad
:103f60000080700080b79f000800be000a01be00fc
:103f70004f18de000402420000027200f4af9f00fe
:103f80000804440089844c000a054d008b854d00cf
:103f90004fb29700dfb297006fb39700ffb397005f
:103fa00000000600e00f5000e08f5800e00f5900bd
:103fb000e08f5900000006006044b8006055b8006a
:103fc0000000540081805c0002015d0083815d007f
:103fd0001c0020000820e10009a8e1000ab0e1006f
:103fe0000bb8e100000006000402540085825c006a
:103ff00006035d0087835d00000006000006eb00fd
:10400000e00f5200e08f5a00e00f5b00e08f5b0092
:10401000000006006022b8006033b80000005200c3
:1040200081805a0002015b0083815b000000060072
:104030006022b800060220000000d0008180d2007b
:104040000482d2008582d2000000a0000202520049
:1040500083825a00030031000202420083824a0038
:104060000000a1000603e900f3ff3a00000006008b
:104070004f89de0082017800df0237002800fa0055
:10408000889fbe008a9fbe008c9fbe0003866b0087
:10409000e90207000028a30064003a000128a300f9
:1040a00067003a000008a30062003a000108a3007c
:1040b00065003a001e009000be0890008106400096
:1040c000ed3fb100f4805700ee019000111ab800e6
:1040d0008e099000311bb8009e099000311cb80079
:1040e000511db800f485570046000700fe019000fe
:1040f0003a0007008b85e8003e0007008e0990001b
:1041000040000700ee019000340007008b85e800b6
:10411000380007008e099000400007009e099000bb
:104120001b18b800890440000a854800fe01900071
:10413000340007008b85e80038000700ee0190008e
:10414000300007008e0990001b18b8008904400059
:104150000a8548000a98a30008003a0004024200b9
:1041600085824a0006034b0087834b0008044c00fd
:1041700089844c000a054d008d06e9008482720096
:10418000850273004c3add008502720001003200a6
:1041900015002000443ade001400b2004538de006d
:1041a000cb45dd000b007000c540de00cb4ddd00cf
:1041b0008b8070004549de00cb55dd000b0171009e
:1041c000c551de000d037800b402070003f0a10022
:1041d0000cf0a70003f0a000ab0237001b18b800da
:1041e0008502400006834800e0834b0060044c00d9
:1041f000070037001b18b8000603400087834800fb
:10420000faff37001b18b8008703400008844800f5
:10421000e0844c0060054d00000006001b18b8004b
:104220000804400089844800faff37000108a30011
:1042300092023a005800be005801be00e3ff37006a
:104240000008a3008d023a0009047800f9ff370046
:104250001400fa00889fbe008a9fbe008c9fbe009b
:104260000004be000205be00680047000a90be00c0
:104270000890be00b50207000070a7000bf0a10077
:10428000304320009e02900080825200b0fe2f003a
:104290000028e10011003d00b0fc2f000028e100e3
:1042a000150034001e0990008e0890007e009000da
:1042b0000501b0000201d1008180d3000080d3004d
:1042c0008502e800fbff3a000b00e0006e023b00b5
:1042d00060001000e08018006b023700f0ff2f0034
:1042e000f1ff27000b00e00067023b0001002800ff
:1042f00000002000640237006000b800620237004e
:104300004f89de0082017800b70237000001be004d
:10431000c50207000470a70003f0a1006509b10001
:10432000160032000d0035006828e1000600350057
:10433000f0ff2f00f1ff27000300e00013003b0017
:1043400001002800000005000000400081804800b6
:104350008502e900fcff3a0008003700f88f4200b0
:1043600002003c008000eb00000005008100d1004d
:104370000080d3008502e800fcff3a000300e00063
:1043800002003b0060001000e08018000000060002
:10439000889fbe008a9fbe008c1f7800b70207006e
:1043a000be02330003866c006450e100240032003a
:1043b0006420e100270032006150e1002200320059
:1043c0006120e100210032008b854200eb07b10043
:1043d0000134b800003ab8000804420089844a0059
:1043e000013ab8000030b8008880400009014a0056
:1043f00004003300000040008180480002014900b1
:104400008b05e900c909dd0083017000010032005d
:1044100013002000c814de004814dd004709de0048
:104420001200b200c808de0008847000ab0207006a
:1044300001f0a1000cf0a70001f0a000a0023700dd
:104440006120e100a20232000801be000200be00ad
:10445000f7ff37006150e100fcff3a009c02370093
:10446000f4ff2f00c30237000002eb00dc0207005c
:104470000500320007ff2300060020006022b8007c
:1044800003f0a700010007000000060007f0a200eb
:1044900005003700809feb00150307008f87e900b8
:1044a0000000e000000006002800fa00889fbe001f
:1044b0008a9fbe008c9fbe00070678008786690031
:1044c0000c003b00030478008704780008f0a1008a
:1044d00009f0a100840f5000858f5800860f590005
:1044e000890f5c00030033000cf0a20001003a00c9
:1044f0000cf0a100d00107006400e1005f00320071
:10450000780147006408e100610032006c01470057
:10451000748557003200be001201be003a04be008e
:104520001a05be001e039000be0a900085035300ca
:1045300006003d000004fd008104fd000205fd00b1
:104540008305fd008703ea00050378000df8a3004a
:104550000400320060041400e0841c0060051d00ab
:10456000e0851d006022b8007d0320000d38e100c9
:104570008006eb000b0039004433dd00f300b2008d
:104580008301730039003700848272000d027800c5
:10459000e10664008b85d1000a85d3008984d300ad
:1045a0000884d3008703e900f7ff3b0008004000c0
:1045b000898048000a0149008b81490004003b00c2
:1045c00060001000e080180060011900e08119000f
:1045d0000358a300090032008d82720084827200a9
:1045e000610260008301d1000281d3008180d30089
:1045f0000080d3000603e8001b0037000348a30037
:1046000017003a000600e000170034000603e90036
:104610000d00a3000000480081804800020149000d
:10462000838149000348a3000f003a000600e00020
:10463000090034000603e9000000400081804800c2
:10464000020149008381490001003a000003eb00a8
:104650000348a300f5ff32006022b80002003700d3
:1046600084827200618266008c01070003f0a10061
:104670000cf0a70003f0a00083013700640147009d
:104680006408e10002003a000df8a3007b013a0043
:104690003200be001201be007b0137008f1fd10027
:1046a000930207008f87e9000000e0000000060089
:1046b0006011b800b70237002800fa00889fbe00da
:1046c0008a9fbe008c9fbe0003866b005a010700c4
:1046d0006400e100440032006408e1004a00320056
:1046e0006100e100460032006108e100490032004b
:1046f000ec0647006000b8003d02be003d03be006e
:10470000f48657006011b8003d04be003d05be00b0
:104710007d0320000b0037000000a0008d06e9009b
:10472000130032000402420085824a0006034b0057
:1047300087834b000000400081804800020149004f
:10474000838149000802520089825a000a035b00f3
:104750008b835b00f0ff3b000802420089824a0025
:104760000a034b008b834b008d06e900edff3a00f6
:104770008482720086827200f707b200878272001c
:1047800001003200150020001e0490003e0b900036
:1047900006035400e63fb0000368a30007003200a0
:1047a0000000a7000500a0008301d1000281d30012
:1047b0008180d3000080d3000603e8008301d1008c
:1047c0000281d3008180d3000080d3000002eb007f
:1047d0000482d2003101070003f0a1000cf0a70011
:1047e00003f0a00028013700640247006408e100dc
:1047f000220132003400be003401be00f6ff370053
:104800006108e1001d0132006011b8006000b800cd
:10481000f1ff370003ff270002002000fbff3700f5
:1048200081037800800107000001be006000b8002d
:104830000478a30013003a006220e10015003e0056
:104840000d0039008301d1000281d3008180d300a3
:104850008301d1000281d3008180d3008301d10084
:104860000281d3008180d3000538b000c42add0066
:10487000f300b2008381720007f0a70003f0a000ec
:1048800000000600f3ff2700f2ff2f006110b900bf
:10489000fbff370003ff2700f7ff37001400fa0083
:1048a000889fbe008a9fbe008c9fbe000004be0091
:1048b0000205be00680047000a90be000890be00d6
:1048c000220107000070a7000bf0a1000bf8a30065
:1048d00016003a009e029000304320008082520071
:1048e000b0fe2f000028e1000d003c00b0fc2f00be
:1048f0000028e1000d0034001e0990008e08900091
:104900007e0090000501b0000201d1008180d3003b
:104910000080d3008502e800fbff3a00da00370090
:104920000100280000002000d70037006000b80018
:10493000d5003700801feb00410207008f87e90098
:10494000000006001400fa00889fbe008a9fbe0087
:104950008c9fbe000005be000206be006800470036
:104960000c90be000a90be00f80007006400e10051
:104970001a00320016003e006100e1001a00320009
:104980006e049000fe0490000e0b90009e0b9000b1
:104990006011b8009e0590000b38b100d5012000d1
:1049a00082817100610164008703d1000683d30016
:1049b0008984d3000884d3008502e900f8ff3a0017
:1049c000460107000df0a70001f0a000ae0037007f
:1049d000f1ff2700f0ff2f00ab00370001f82700a0
:1049e00000002000f7ff37006000b800f5ff370037
:1049f0006011b8007a02370003f0a200889fbe0061
:104a00008a9fbe008c1f78001c0107002301330021
:104a10006450e1004f0032006420e1005200320097
:104a200003826c0007003b000905d0000306d0009c
:104a3000820f54000c065d000200390002003200b3
:104a400089017800030678008582550004003d0046
:104a50000003fd008103fd008502ea008b85420012
:104a6000840f720002003b0060001000e08018001c
:104a70006011b8000005eb007a28e1000a00390057
:104a800006007800c75ddd00f707b200878075007b
:104a90002d003700828171000a01780061056000f5
:104aa0008180d1000080d3008502e900f9ff3b003e
:104ab000060440008784480002003b0060041400a4
:104ac000e0841c000988a300070032008a8171007d
:104ad00082817100610164008904d1000884d300df
:104ae0008b05e800170037000978a30013003a008f
:104af0000b00e000130034008b05e90008044400bb
:104b000089844c000a4474000978a3000d003a001f
:104b10000b00e000070034008b05e90008044400a6
:104b200089844c0001003a000b0020000978a300a2
:104b3000f7ff32000001eb000200370082817100b4
:104b40000a017800e50007000cf0a70001f0a000c2
:104b5000db0037006420e10002003a00838f6c0024
:104b6000db0033000801be000200be00d4003700a5
:104b7000889fbe008a9fbe008c9fbe000404b800c0
:104b80000506b8008904460060854e000606b80098
:104b90000a054600e0854e000706b8008b05460072
:104ba000040eb800890446000a854e00e0854d00d9
:104bb000050eb8000a0546008b854e00060eb800ab
:104bc0008b0546000416b8000a0546008b854e008a
:104bd0000516b8008b054600041eb8008b0546007c
:104be0000800be000a01be004f06be004f05be0011
:104bf0004f04be0000000600881f78000304780000
:104c00000300e00007003d0060001000e080180095
:104c100060011900e081190002003b0001f02d0045
:104c2000030037005b01070008f0a70003f0a000b5
:104c30004f04780000000600680447000294be009c
:104c40000094be00fc0447008694be008494be001d
:104c5000090078003d000700080078003b000700cd
:104c600099007800814f70000b003b000800be00e7
:104c70000a0207004f00b10003003700f3ff2700ce
:104c8000f2ff2f006110b9004f06be004f05be00b5
:104c90004f04be000080fa0000000600180020004b
:104ca00057002000080453000d003d0006002000be
:104cb00097fc2f000740e1001e0034008482720040
:104cc000610260008301d1000281d3008180d300a2
:104cd0000080d3000804e800f8ff3a0047002000f5
:104ce0006104600005047400040464000d003200d7
:104cf00061004000e080480060014900e081490017
:104d000003b8a500070032000603e8006538e1009b
:104d100004003a008301d1000281d3008180d300d6
:104d20000080d300f87f20000830e1000300350048
:104d3000080378006000b8006011b8004433dd005b
:104d4000f300b200830173000000060080007800c9
:104d50005002be005003be004439de00f700b2002e
:104d6000f37f200003016100090032000218e10016
:104d700016003a008501720083017300838173007d
:104d80000008200015003a00400020001300370002
:104d900085017200830173008381730005003a006e
:104da00004a8be0006a8be00100020000b003700bb
:104db0000201e9000402420085824a0006034b001a
:104dc00087834b000748a300f9ff32000740a0008b
:104dd00004a8be0006a8be002000200080009800a5
:104de0009200980000000600881f780003047800f5
:104df0000300e00007003d0060001000e0801800a4
:104e000060011900e081190002003b0001f02d0053
:104e1000030037007201070008f0a70001f0a000ae
:104e20004f04780000000600c70ade00f107b20058
:104e3000f50fb20008003200e1cf4200020032005c
:104e40000170a00024000500810f700001003200f5
:104e50000408050044000500810f700002003a00bc
:104e6000140005008502e9000000400081c04800f0
:104e7000fcff3b000170a000240005000004be0000
:104e8000e9ff07000003be000405be000200be00eb
:104e9000e5ff0700844f7500000006000200be0019
:104ea0006450e100050036006420e1000200360095
:104eb0000968a30001003a000800be000160a000dc
:104ec0004f0678004f05be004f04be0000000600ec
:104ed000f0ff2f00f1ff2700f9ff370081002000cd
:104ee000618055000b003d000b00200061fe2f008b
:104ef0000100e1001d003400828171006101640045
:104f00008904d1000884d3000000e800faff3a00c9
:104f10007100200061006400030070000200600066
:104f20000900320061044400e0844c000988a500b7
:104f3000050032008b05e8006808e10002003a0035
:104f40008904d1000884d300f20f20000258e10048
:104f500005003d00c75ddd00f907b20089807500de
:104f600008007800000006000bf827008b0078008e
:104f700000000500889fbe008a9fbe00841f780045
:104f8000beff07004f00780011003300f0ff2f0034
:104f9000838f6c0006003b00040565000a00a70033
:104fa0000800370009f0a6001000200008003700b4
:104fb000820f5400838f5c00030039001000200032
:104fc00001003e000000200009f0a7000000ea00f8
:104fd0004f05be004f04be000000e00000000600c8
:104fe0001400fa00889fbe008a9fbe008c9fbe00fe
:104ff00004067800e80247008292be008092be005c
:105000000500780051ff07006200e10033003a001c
:105010006000b8006011b8001e0390000c0353003c
:10502000f63fb100220035004b0320000b30e100b9
:105030002a003d00fb012000faff2f006154b90057
:105040006c0147008b05d1000a85d3008984d30009
:105050000884d3000603e900faff3b003200be00db
:105060001201be0000026400818264000203650038
:105070008383650005027200060272000702720057
:10508000160032000884ea008984ea000a85ea00f2
:105090008b85ea00000064008180640002016500e5
:1050a000838165006022b8001e039000fbfe0700ac
:1050b000de03900007f0a70003f0a0000082eb00e1
:1050c0000400e0008e0290004f06be004f05be00b7
:1050d0004f04be000080fa00000006006401470093
:1050e000040020003200be001201be00f4ff3700b1
:1050f000889fbe008a9fbe008c9fbe000404be0035
:105100000605be00809fbe00829fbe00f100070022
:10511000040678000800be000a01be00ed0007008a
:10512000840678004f03be004f02be008d4f76000c
:105130007fb0970013003300f0ff2f008b8f6b00c0
:1051400006003b000d0666000c00a7000a003700b1
:1051500007f0a600100020000a003700880f520058
:10516000898f5a008a0f5b008b8f5b000300390028
:105170001000200001003e000000200007f0a70002
:105180000000ea004f06be004f05be004f04be00ff
:1051900000000600889fbe000082700004027100bb
:1051a000048271002400320036432000c500200034
:1051b0008383cf000a0039000541b1008283cf000c
:1051c000070039000541b1008183cf000400390098
:1051d0000541b1008083cf00010039000541b100d5
:1051e00085c353006022b800120032000a003b0061
:1051f00084827200610260008301d1000281d300c9
:105200008180d3000080d3000603e8008743e800d4
:10521000f7ff3a0007003700000040008180480097
:1052200002014900838149000603e9008743e90040
:10523000f9ff3a0099fe07004f04be000000060087
:105240002800fa00889fbe008a9fbe008c9fbe0087
:105250000efe970078fe07006108e1005c00320056
:105260006200e1005a003e00540039006408e10089
:10527000520032006c014700748557003200be00b6
:105280001201be003a04be001a05be009e02900044
:10529000be0e90000d82520017003b000402e80091
:1052a00046003a00880f5000898f58008a0f590035
:1052b0008b8f590041003400640147007803470098
:1052c0003200be001201be003602be001603be0050
:1052d00007f0a10003f0a60007f0a0000c70a700e3
:1052e00071fc070068fe3700000040008180480024
:1052f00002014900838149000c00a0000800500011
:10530000898058000a0159008b81590005003b0033
:1053100008004000898048000a0149008b8149004b
:105320000c00a1000402e900efff3b000002400076
:105330008182480002034900838349001b00320038
:105340000802520089825a000a035b008b835b00cb
:105350004200f8000500370000004000818048004e
:1053600002014900838149008d06e9000340a6003f
:10537000f9ff37006022b8000d03780047fe0700f0
:10538000780347004200f9000800350002003c00a5
:105390000c08a300050032003602be001603be0052
:1053a00007f0a0000c70a7003ffc07005e02900011
:1053b00004f0a70003f0a20033fe37002e00900097
:1053c000be0090004e019000de0190002efe3700de
:1053d000100220000c70a6000040880027fe370055
:1053e000889fbe008a9fbe00008270000402710088
:1053f00004827100260032000004be000200be00dc
:105400006011b8006b092000950220000182cf00d6
:105410000a0039000541b1000082cf0007003900c1
:105420000541b1000982cf00040039000541b100f7
:105430000882cf00010039000541b1000542520049
:10544000120032000a003b00828171006101640099
:105450008100d1000080d3008984d3000884d30068
:105460008b05e8000442e800f7ff3a000700370028
:105470000804440089844c000000480081804800f2
:105480008b05e9000442e900f9ff3a0093fe0700aa
:105490004f05be004f04be0000000600e48240003d
:1054a0001078a30007003200640240001178a300c6
:1054b0003400be001401be00040032000330a70017
:1054c000000006003500be001501be000330a0003c
:1054d0000000060005ff270005826100070032007a
:1054e0000428e10001003200240005000600070046
:1054f00001003a004400050004080500020007000e
:10550000f9ff3a00140005006f826100810270000b
:10551000850271008502720000000600020ab900cf
:10552000001bb9000200b800810042008100430066
:1055300000000600befa07000400be0000000600de
:105540002200f8002400f8002600f8000100b8004e
:105550000000e9004400f800010f2000210288004b
:10556000820078003800f8003a00f8003c00f800ab
:105570003e00f8004000f800008008000400000031
:10558000b30278000500ca00b40278000500c90023
:105590003200cc004000f9003e00f9003c00f90068
:1055a0003a00f9003800f900010078004400f900e1
:1055b0002600f9002400f9002200f900000006008e
:1055c0002200f8002400f8002600f800889fbe00a2
:1055d0008a9fbe008c9fbe004400f8000d0f200083
:1055e0002d028800830678000106e9008205e900a3
:1055f00081804000020141000000e90024003500e4
:10560000050578003800f8003a00f8003c00f80082
:105610003e00f8004000f8000b8008001400000075
:10562000040478008a0478001201c3003800f800ee
:105630003a00f8003c00f8003e00f8004000f80096
:105640000c800800030000003803780099037800fc
:105650001201c600828444004000f9003e00f900b7
:105660003c00f9003a00f9003800f9003300cd00a1
:105670000a85e8004000f9003e00f9003c00f9000e
:105680003a00f9003800f90001024200daff370061
:105690000d0078004400f9004f06be004f05be0023
:1056a0004f04be002600f9002400f9002200f90092
:1056b000000006002200f8002400f8002600f80090
:1056c0004400f800050f2000250288000100b80002
:1056d0000000e900820078003800f8003a00f80085
:1056e0003c00f8003e00f8004000f8000080080090
:1056f00002000000b30278001301c0003200cd00a8
:105700004000f9003e00f9003c00f9003a00f900c1
:105710003800f900010078004400f9002600f90083
:105720002400f9002200f900000006002200f80021
:105730002400f8002600f8002800f8002a00f800ed
:105740002c00f8000100b8000000e9004400f80057
:10575000010f200021028800820078003800f80044
:105760003a00f8003c00f8003e00f8004000f80065
:105770000080080005000000b30278000500ca00a0
:10578000b40278000580ca000030cb003200cc00a3
:105790004000f9003e00f9003c00f9003a00f90031
:1057a0003800f900010078004400f9002c00f900ed
:1057b0002a00f9002800f9002600f9002400f90069
:1057c0002200f90000000600820278000000e900d3
:1057d0000102e900818040003800f8003a00f8003a
:1057e0003c00f8003e00f8004000f800048008008b
:1057f00011000000030278003800f8003a00f800b9
:105800003c00f8003e00f8004000f800008008006e
:105810000100000014197800010242004000f90064
:105820003e00f9003c00f9003a00f9003800f900a8
:10583000000000008381e800000000004000f90043
:105840003e00f9003c00f9003a00f9003800f90088
:1058500005007800000006002200f8002400f8008f
:105860002600f8004400f800040f200024028800fd
:10587000010278000000e9003800f8003a00f80062
:105880003c00f8003e00f8004000f80000800800ee
:1058900004000000b20278000500ca00b3027800dc
:1058a0000500c9003100cc004000f9003e00f900bd
:1058b0003c00f9003a00f9003800f90004007800d3
:1058c0004400f9002600f9002400f9002200f90044
:1058d000000006002200f8002400f8002600f8006e
:1058e000889fbe008a1f78004400f800070f200040
:1058f00027028800821f78008103e9000005eb0081
:105900003800f8003a00f8003c00f8003e00f800cb
:105910004000f8000780080014000000030478002d
:10592000840478001201c3003800f8003a00f8003f
:105930003c00f8003e00f8004000f8000a80080033
:1059400002000000b8027800290378001201c400a8
:105950004000f9003e00f9003c00f9003a00f9006f
:105960003800f9003200cd000482e8000a05e800a2
:105970004000f9003e00f9003c00f9003a00f9004f
:105980003800f9000482e9008381e8000105500035
:10599000210034000a05e9003800f8003a00f80058
:1059a0003c00f8003e00f8004000f8000a800800c3
:1059b0001300000003047800840478001201c3007f
:1059c0003800f8003a00f8003c00f8003e00f8000b
:1059d0004000f8000780080002000000b8027800cc
:1059e000290378001201c4004000f9003e00f900cc
:1059f0003c00f9003a00f9003800f9003200cd000f
:105a00008381e8004000f9003e00f9003c00f90005
:105a10003a00f9003800f9008703e9002100350059
:105a20003800f8003a00f8003c00f8003e00f800aa
:105a30004000f8000780080014000000030478000c
:105a4000840478001201c3003800f8003a00f8001e
:105a50003c00f8003e00f8004000f8000780080015
:105a600002000000b8027800290378001201c40087
:105a70004000f9003e00f9003c00f9003a00f9004e
:105a80003800f9003200cd008381e8008703e90087
:105a90004000f9003e00f9003c00f9003a00f9002e
:105aa0003800f9004f0078004400f9004f057800f5
:105ab0004f04be002600f9002400f9002200f9007e
:105ac000000006003600f800810178000000e900bf
:105ad00000800900b2187800030078003600f90051
:105ae00000000600840378008102e9008502d000ee
:105af000050342008102d1008502e9003800f80068
:105b00003a00f8003c00f8003e00f8004000f800c1
:105b10000580080002000000960278001713780044
:105b2000851b78004000f9003e00f9003c00f900b8
:105b30003a00f9003800f9006a2c02000000000069
:105b4000000006002200f8002400f8002600f800fb
:105b50004400f800040f2000240288000000e9003f
:105b60001201c3003800f8003a00f8003c00f800c9
:105b70003e00f8004000f80000800800020000002d
:105b800031027800b20278001201c0004000f90032
:105b90003e00f9003c00f9003a00f9003800f90035
:105ba0000000cd004400f9002600f9002400f900af
:105bb0002200f90000000600b10278000009eb00a5
:105bc0000002e90007003400b10178000328e10079
:105bd00002003c0083027800040950000402e9003e
:105be000f9ff3c000500780000000600b1027800d3
:105bf0000009eb000002e90007003400b101780061
:105c00000328e100020035008302780004095000f7
:105c10000402e900f9ff3c000500780000000600de
:105c20002200f8002400f8002600f8004400f800e4
:105c3000040f200024028800811f78000000e90082
:105c40003800f8003a00f8003c00f8003e00f80088
:105c50004000f800008008000300000032027800d5
:105c6000b30278001301c0003100cd004000f900fc
:105c70003e00f9003c00f9003a00f9003800f90054
:105c80004f0078004400f9002600f9002400f900d4
:105c90002200f900000006002200f8002400f800ad
:105ca0002600f8004400f800030f200023028800bb
:105cb000810178000000e900040028001201c300ff
:105cc0003800f8003a00f8003c00f8003e00f80008
:105cd0004000f8000080080003000000b2027800d5
:105ce0001201c0003100cc001201c3004000f900d5
:105cf0003e00f9003c00f9003a00f9003800f900d4
:105d0000030078004400f9002600f9002400f9009f
:105d10002200f900000006002200f8002400f8002c
:105d20002600f8004400f800020f2000220288003c
:105d30000000e9001201c3003800f8003a00f80042
:105d40003c00f8003e00f8004000f8000080080029
:105d500001000000310278001001f0004000f9005d
:105d60003e00f9003c00f9003a00f9003800f90063
:105d70000000cd004400f9002600f9002400f900dd
:105d80002200f900000006002200f8002400f800bc
:105d90002600f8004400f800040f200024028800c8
:105da000811f78000000e900030278003800f80045
:105db0003a00f8003c00f8003e00f8004000f8000f
:105dc0000080080002000000b20278001301c00049
:105dd0003100cd004000f9003e00f9003c00f90020
:105de0003a00f9003800f9004f0078004400f9004b
:105df0002600f9002400f9002200f9000000060046
:105e00002200f8002400f8002600f8002800f8001e
:105e10002a00f8002c00f8004400f800040f2000cd
:105e200024028800010278000000e9003800f80030
:105e30003a00f8003c00f8003e00f8004000f8008e
:105e40000080080005000000b20278000500ca00ca
:105e5000b30278000580ca000030cb003100cc00ce
:105e60004000f9003e00f9003c00f9003a00f9005a
:105e70003800f900040078004400f9002c00f90013
:105e80002a00f9002800f9002600f9002400f90092
:105e90002200f900000006003600f8000203780036
:105ea0000002d0008102e90082007800030178003e
:105eb000622d0200000000000400400001002000ec
:105ec0000580090001187800060078003600f90006
