:020000040000fa
:080000000002040000000000f2
:020000040000fa
:100400000fd020000efb27000e0188000000000026
:100410000c00070020b42400010020001100070098
:10042000000020000000e000020032000000020096
:10043000000000001c710200000000000040da0013
:100440000000fe004440a900a02320000000e000be
:100450000300320000002000a00188004440a800f2
:100460000000060091018800800078000000eb0089
:1004700015003700e280400032a0b4009101ba00bc
:10048000e280400032a0b4009102ba00e280400055
:1004900032a0b4000002eb00472bde00f507b200eb
:1004a000602ce10004003a000059eb008301e900f0
:1004b000fdff3e00040037006128e100010032002a
:1004c0000082eb00040007001101ba000200e00006
:1004d000e8ff3a00000006003159ba008301e90044
:1004e0000c0032002159ba008301e90008003200f3
:1004f0000400e00003003a00e280400032a0b400b3
:10050000f5ff370011d9ba008301e900faff3a007c
:100510008100e800e180400032a0b4000000060045
:100520000e610400000000002c61040000000000c7
:10053000fa600400000000003c61040000000000bc
:1005400052610400000000008c6104000000000003
:10055000d461040000000000fc6104000000000001
:10056000aa47040000000000a045040000000000ad
:10057000684504000000000074450400000000000d
:100580009445040000000000b44504000000000091
:10059000c245040000000000d04504000000000037
:1005a000dc45040000000000ea45040000000000f3
:1005b000184604000000000044460400000000004b
:1005c0000c4604000000000050460400000000003b
:1005d0006e5104000000000076510400000000008d
:1005e00098510400000000000852040000000000c0
:1005f0004c520400000000008c5204000000000077
:10060000b652040000000000125d0400000000006b
:10061000765d040000000000265d0400000000007c
:10062000e45c040000000000ce5d04000000000057
:100630002c03040000000000800078000100370057
:100640008100e8000041eb00914f1100fcff3a00ef
:100650000080500000000600889fbe000004780063
:100660001800900082047800808f5400010036004a
:10067000800478001800780009017800170007004e
:10068000188c440018009000890450001904980048
:10069000080078004f04be00000006000400fa00c5
:1006a000e08f500003003a000f80e900e0bf9f0098
:1006b00002003700e0bf9f008100e900f1bf9f000a
:1006c000e4805700c03220000b000700efb897000d
:1006d0008048eb000080fa000000060080017800ee
:1006e00002003700b15978000201e900e00f510023
:1006f000fcff3a00000006004f06b000889fbe00d5
:100700008a9fbe008c9fbe008e1f780080057800f7
:1007100001057800820478008300780000f92f003a
:100720000f004000ad00070028f92f000f0444001f
:100730004b0498005a0498000000eb00600c9800ed
:10074000aecf2000edce2000fcff2700194078003e
:100750008085fb000b05fb008b05ea00cf5dde000a
:1007600050022000800f55000d003200e18f55002f
:100770000b003a00c80190000b0178008900780056
:10078000580090000300010050049800e00f500052
:100790008b003200680890000000e800600c9800b0
:1007a0008b84440050022000800f5500040032006a
:1007b000e00f5500e5ff3a007f9097008100370079
:1007c0000000eb00400c9800300c9800200c9800c2
:1007d000100c9800000c9800700498000014980009
:1007e000070037000e005000000040006d00780048
:1007f0008810900001007000001498008904e8003f
:10080000194578008a00fb00a0cf20007500070082
:10081000e00f5000f3ff3a00a1c2b300814f550032
:100820000e003a008f8897000180e900808f9f00ba
:1008300010007800700c9800e00f500005003d009b
:100840000000ea00700c9800081090000020a00042
:10085000001498008904e8000f003700700c98001d
:1008600008003700780890008c0f50000400320018
:100870006a00b9000003b10002004000700c98004b
:100880008904e8001901fb0000fd2f000200400070
:10089000e90f5000f3ff3600e0c2b300994f10009b
:1008a000030032000080eb00500c98001a00370063
:1008b000a0c2b300d94f100007003a008f889700fc
:1008c0000180e900808f9f0010007800500c980094
:1008d0008904e800100037000000eb00500c98007d
:1008e00008003700580890008c0f500004003200b8
:1008f0006a00b9000003b10002004000500c9800eb
:100900008904e8001901fb0000fd2f0002004000ef
:10091000e90f5000f3ff3600194578008a00fb000c
:1009200060ce20002f000700e00f500002003200d0
:100930008904e80001003700004578002a64980027
:1009400080c6b300804f550004003a00994f15004f
:100950000a003a006640500006003700c0c6b300e7
:10096000804f550005003a00994f150003003a00ea
:1009700065404000206498008904e80063fb2f0074
:100980008f8141001941780001f92f008f804000cc
:10099000080078001c000700e00f500008003a0033
:1009a00061fb2f008f804000080078008a0107005b
:1009b000e00f5000020035008904e80063ff3700b3
:1009c0000080eb004f0778004f06be004f05be00c9
:1009d0004f04be004f06b100000006000108780079
:1009e0000000060003003700e04f51000500320010
:1009f0000000e80010417800814f5100faff3a00f2
:100a00000000060000000500889fbe008a1f7800d5
:100a100000047800824478000305780070c6b300b3
:100a200080cf540021003c0000c0e90080cf54007a
:100a3000d7003d007240500080cf54004301320087
:100a40000d003c006c40500080cf540056013c002b
:100a500000c0e90080cf5400cd003d0050c2b3007b
:100a600080cf54004d0132007c40400080cf5400c4
:100a70004d013a00c600370010c6b30080cf5400c5
:100a8000c300320004003c006940500080cf540095
:100a900045013a006c00370030c6b30080cf5400e7
:100aa000180032000040e8000900370000c7b3001a
:100ab00080cf54001601320008003c0000c0e9005d
:100ac00080cf5400db0032005f003c0065405000e6
:100ad00080cf540034013a000f00370050c7b300f4
:100ae00080cf5400580032006340400080cf540053
:100af000550032006540500080cf54002a013a0072
:100b0000120137001181e900820878007800900016
:100b1000127578002a01370028609000c2c6b30021
:100b2000824f500009003a00110078006402500022
:100b3000840878001400be00140290004fa2de006a
:100b400004017800840178001200370012c7b30056
:100b5000824f500003003200a2c6b300824f500003
:100b600006003a0011017800680051008008780002
:100b70005001be004000be00060037001180e900b1
:100b80008008780010007800cf80de000101780036
:100b900082017800009cbe000294be002862900092
:100ba00085c6b300854f52000e00320025c6b30043
:100bb000854f520005003a000000fb00cf80de00a8
:100bc00001017800820178000900370045c7b300b1
:100bd000854f520003003200e6c24200854f5200aa
:100be00005003a00cf80de00010178008201780024
:100bf000009cbe000294be003802be002803be0066
:100c000078009000d1c2b300e00f5200e08f5a008c
:100c1000e00f5b00e08f5b0008003500881090005b
:100c20006281600002003200b1c2b30003003700ed
:100c3000e18060005100320001c2b300017578000c
:100c40000000e8004c00370028609000c2c6b300e6
:100c5000824f500007003a001100780064025000f3
:100c6000840878001400be000001eb0082017800c7
:100c70001200370012c7b300824f50000300320049
:100c8000a2c6b300824f500006003a00110178005e
:100c900068005100800878005001be004000be008e
:100ca000060037001180e900800878001000780005
:100cb000010020000200200003002000009cbe0074
:100cc0000294be002862900085c6b300854f520092
:100cd0000e00320025c6b300854f520005003a00d1
:100ce0000080fb0001002000020020000300200023
:100cf0000900370045c7b300854f5200030032009a
:100d0000e6c24200854f520005003a000100200073
:100d10000200200003002000009cbe000294be00e0
:100d20000810900068006000140032003800be0017
:100d30002801be00e00f5000e08f5800e00f59007e
:100d4000e08f59000d00320080c7b30080cf5400ff
:100d50000300320080c5b30080cf540007003a0082
:100d6000f800900000c3b30000f578000100e8002f
:100d7000097578000180e800700498007800900000
:100d8000000545006a049800894078006c0037002f
:100d900028619000c0c4b300804f510006003a00a3
:100da0001101780068005100800878005001be00f1
:100db0004000be00050037001101780064005100ba
:100dc000800878001000be0042080700009cbe00aa
:100dd0000294be00b800900078009000e08f5000b0
:100de00002003d00d1c2b300080037008810900017
:100df0006281600002003200b1c2b300030037001c
:100e0000e18060000400320001c2b3000175780087
:100e10000000e8007004980078009000000545008c
:100e20006a049800894078000800780026010700cd
:100e30006500370028609000c3c6b3001181e90047
:100e4000834f5000260032000a003c00e4c15100ec
:100e5000834f50001f00320083c1e800834f5000d1
:100e600013003200e8c15100834f500022003a00c5
:100e70000a00370043c7b300834f5000150032000b
:100e8000e6c14100834f500012003200e9c1510019
:100e9000834f500018003a000500370082087800a0
:100ea00012007800485c900008487800460037003f
:100eb000820878001202780068089000cf80de0077
:100ec0000101780082017800009abe000292be0003
:100ed0003d003700820878001200780009003700d2
:100ee000820878001201780068089000cf80de0048
:100ef0000089be00340037001180e90080087800c6
:100f000010007800680c9000080878002e00370068
:100f10001180e9008008780010007800cf80de00a2
:100f20000101780082017800009cbe000294be009e
:100f300078009000000545006a04980081c7b3005e
:100f400008007800100307001f0037001180e90037
:100f500080087800100578006a049800d80c90008a
:100f6000e08f540004003d000a007800b2fd070045
:100f70008004780007003700090178008000eb004a
:100f80000a00780046040700e00f5000010032001c
:100f90008a045000190c98000b003700780090006c
:100fa00009757800060037007800900000054500bc
:100fb000e0cf540001003a0059c2b300094d780057
:100fc0000000e800700498000000eb004f05780076
:100fd0004f04be00000006000400fa00889fbe0017
:100fe0008a9fbe008c1f78000004780001067800fc
:100ff000f80d90007800900080855500080890005a
:10100000808555001808900080855500a80c900038
:1010100089855500b80c900089855500c80c900052
:10102000898555000002220090bf9f000003230025
:10103000a0bf9f00081090006400600015003a00f7
:10104000e08f5500130034000b0578008a04780007
:10105000e20f55000100360029002000c801900071
:1010600009017800ee80570058009000030001004d
:1010700050049800e00f50008c0032006808900087
:1010800009004000600c9800090555004240a90085
:10109000eeff3c0078019000e00f51000c0034009e
:1010a000c80190008c0078005800900003000100f7
:1010b000500498008080eb00e00f50007c0032006c
:1010c000e80890007800900000804000600c9800d4
:1010d000880c9000e08f540011003400090578005e
:1010e000e28f5400010036002a002000c801900061
:1010f0000a017800ec8057005800900003000100be
:1011000050049800e00f500068003200680890001a
:101110000a004000600c98008a845400edff3700fc
:1011200018099000e00f51000c003400c801900035
:10113000e80090005800900003000100500498005f
:101140008080eb00e00f500059003200e80890006a
:101150001808900000804000600c9800a80c9000d7
:10116000e08f54001100340009057800e28f54002c
:10117000010036002a002000c80190000a01780012
:10118000ec805700580090000300010050049800c4
:10119000e00f500045003200680890000a0040004f
:1011a000600c98008a845400edff370038099000e5
:1011b000e00f51000e003400e80090001808900085
:1011c00080804000c801900058009000030001009a
:1011d000500498008080eb00e00f50003400320093
:1011e000e80890003808900000804000600c9800eb
:1011f000c80c9000e08f54001100340009057800fd
:10120000e28f5400010036002a002000c80190003f
:101210000a017800ec80570058009000030001009c
:1012200050049800e00f5000200032006808900041
:101230000a004000600c98008a845400edff3700db
:1012400088109000e4806000190032008000eb00fc
:10125000818f5500160034008b0478000905780052
:10126000e28f5400010036002a002000c8019000df
:101270000a017800ee80570058009000030001003a
:1012800050049800e00f50000800320068089000f9
:101290000a004000600c98008a8454004240a90073
:1012a000eeff3c008000eb00010037008080eb0087
:1012b000010078004f0678004f05be004f04be00c5
:1012c0000080fa0000000600cf04b000889fbe0036
:1012d0008a9fbe008c9fbe008e1f7800c0b79f0003
:1012e00001477800800078005101be004100be0037
:1012f000d0979f00e1979f00f2979f00839f9f00e8
:1013000010c6b300804f57001500320010c4b30060
:10131000804f5700120032004fb1970052089000e2
:10132000e00f500003003d006000200050099800cd
:101330000b003700e00f500009003a0070c6b30000
:10134000804f57000300320070c4b300804f570035
:1013500003003a0010002000cfb19700d009980098
:10136000cfb0970080fa2f000f0040005503070010
:1013700080017800e28f510012003a003000200016
:101380004fb29700100a9800a0c4200011c6b30005
:10139000814f570008003200e4c04000814f5700e1
:1013a00005003200e0c420008140e800814f570072
:1013b00001003a00a0c420004fb19700e200900065
:1013c00013003700e08f5100160034003000200079
:1013d000cfb197009009980020c5200011c6b30036
:1013e000814f570008003200e4c04000814f570091
:1013f0000500320060c520008140e800814f5700a1
:1014000001003a0020c520004fb29700e400900090
:10141000b0487800b068780010407800904098009c
:10142000d301370010c6b300804f570003003200cd
:1014300010c4b300804f570011003a004fb097001e
:101440006001900000c3b30000597800cfb097004e
:10145000e200980080c7b30011c6b300814f570067
:101460000100320080c5b300005978004fb29700e8
:1014700062029800740090000080e80070029800fa
:10148000e08f510005003a00c3979f00d3b79f003b
:1014900022fb2f000f014100b001370010c6b3003e
:1014a000804f57000600320010c4b300804f570031
:1014b000ac003a00b0c62000a0b79f000200370081
:1014c000a1c52000a1b79f004fb19700520890001e
:1014d00013022000d3b79f00e00f50000200350038
:1014e0000000e800d0b79f005fb297000404e80056
:1014f0006022b8006033b8005f909700ef909700cb
:101500007f9197008f99970091060700cfb09700c1
:101510003102be002103be00e00f500001003d007b
:1015200007f0a200d4979f00e5979f00f6979f00d1
:10153000879f9f004f91970064015100c2979f00c1
:101540008041eb00a3779f0034fb2f00048247000b
:10155000b4b79f000e407800a0e79f00080778000e
:1015600032003700c201200003002000a0fa2f0043
:101570000f004000fd0207005f949700ef94970072
:101580007f9597008f9d97000800be000a01be005e
:10159000740607000006be00670757004240a90016
:1015a0000c0034009b0607000002be000203be00d0
:1015b0000800be000a01be00990607000002be0036
:1015c0000203be00d4979f00e5979f00f6979f0007
:1015d000879f9f003fb19700e70041007000200007
:1015e00005003700ef606600cc69dd004466de0070
:1015f0000c867100c4eede00e00f5600e08f5e0046
:10160000040034000000e900f6ff3b000100370051
:101610008060eb000000e900fdff3b00e780400038
:10162000b1b79f00e00f5700090034006022b800f6
:101630006033b8005f909700ef9097007f9197001c
:101640008f99970078060700e00f5000c5ff3c0017
:101650002fe7970032fb2f000f0141003fb29700a8
:10166000820152005fb09700808f510004003d005e
:10167000e08f51000d003d00d3b79f0031003700cf
:10168000dfb09700838f500009003d0022fb2f0040
:101690000f0141000280400010409000f2c0b300f2
:1016a000e74f500003003c0001003700d3b79f0014
:1016b0000041eb00dfb19700030278000100370022
:1016c0000402e9008301e90030fb2f000f00400015
:1016d0008300400011407800824f5000f8ff320034
:1016e000d4b79f00ef4f510001003a008048e80056
:1016f000e08f510009003d00dfb097008100e80055
:10170000d1b79f004f91970064014100c2979f009d
:1017100022fb2f000f0141000200370032fb2f0097
:101720000f014100dfb197000400370003004100c2
:101730009000fb002fb2970064c878008301e90095
:10174000faff3b00cfb0970051089000e00f500027
:1017500002013d00dfb197000300e900d0089800c6
:10176000fe0037005f949700ef9497007f959700f5
:101770008f9d97006022b8006033b8000800be005b
:101780000a01be00f2050700e00f500005003d0011
:101790000bf0a200d8979f00e9979f00fa979f004f
:1017a0008b9f9f004f909700cf80de0072592700db
:1017b0000300200021060700026a28001300200011
:1017c0008404070064005000c0979f001c003b0089
:1017d00063001000c1ff2f00010460000802ea004e
:1017e000c4979f000006eb00cdc720001100370012
:1017f000610064000d0032004360dd00008046009f
:101800003002be002003be005f909700ef9097006b
:101810007f9197008f9997000e060700d0979f0041
:10182000e1979f00f2979f00839f9f000884d1005b
:101830000c06e800e00f5400edff3c0021003700eb
:10184000e00f50001f003200c8ff2f0008046000a6
:10185000c8979f006000b8000200200003ff23002b
:101860000006eb00cdc720000900370061026400cc
:10187000050032004362dd00048246005403be00ce
:101880004402be00f30507000884d1000c06e800fe
:10189000e00f5400f5ff3c000002be000203be0052
:1018a0005f909700ef9097007f9197008f99970036
:1018b0005d060700d0979f00e1979f00f2979f0079
:1018c000839f9f004fb097005009900060c6b300ff
:1018d000804f5700040032006100200060c4b30054
:1018e000804f570002003a00cf919700ea804100f4
:1018f00082804000f38f500001003400310120004d
:1019000000c3b300a0779f003dfb2f008f864600e9
:10191000004578008e4578000107780033003700d5
:101920005fb09700efb097007fb197008fb9970035
:101930008c0507000004be00680757004240a9005c
:1019400010003400b30507000002be000203be0011
:101950005fb09700efb097007fb197008fb9970005
:10196000af0507006022b80046782d0077192400e3
:10197000b8050700d0979f00e1979f00f2979f005e
:10198000839f9f00e88646008c0020000801be006f
:101990000c003700a400200005002000a0fd2f004f
:1019a0000f0040006b0207005fa89700efa89700a8
:1019b0007fa997008fb1970004c3b30084664100ec
:1019c0000001be00e00f5100e08f59000400340018
:1019d0000c06e900efff3b00010037008a66780043
:1019e0000c06e900fdff3b00e8864600e00f5700cb
:1019f0000e0034005f909700ef9097007f91970062
:101a00008f999700d0b79f00e1b79f00f2b79f0072
:101a100083bf9f006022b8006033b80082050700d2
:101a200080007800e08f5000bdff3c000b4778003d
:101a300032fb2f000f01410082825600cf909700a9
:101a4000e7804000c1979f0000c3b3000500370046
:101a50008502e900cf9197008301e900c3979f00b9
:101a60000201e800924f1000f9ff32004fb29700d8
:101a7000d408900060c6b300804f570003003200c6
:101a800060c4b300804f570003003a004f909700a6
:101a90008001e800090037001300200050c6b300a1
:101aa000804f5700050032000e40780050c4b2004d
:101ab0008081fb008301e900cf19de0081804100b5
:101ac000d1b79f00858f500001003400d5b79f002b
:101ad000dfb19700e08f51002000350004c3b30050
:101ae000858f510006003d00e2c079006942420046
:101af00040c3b30080cf500001003c006942520057
:101b0000dfb1970083007800010037008100e90011
:101b10008301e9008302410015407800844f5000a2
:101b2000faff3200d1b79f0091c3b300814f52003a
:101b300001003a00804ae800e08f510007003d00b4
:101b40000201e9005fb297000402e800d4b79f00e9
:101b50004f9097000000e800c0979f004f929700b9
:101b6000dfb197008e4078004fb097000e0207005b
:101b70004f0778004f06be004f05be004f04be0061
:101b8000cf04b100000006004f02b000889fbe00e5
:101b90008a9fbe008c9fbe008e1f780000067800d2
:101ba00080c5b30080cf50000a003200774040006b
:101bb00080cf50000a0032006940400080cf5000c2
:101bc0000b00320050cd200080bf9f00ae002000ef
:101bd0000a00370042cc200082bf9f000600370079
:101be00053cd200083bf9f008e00200003003700ec
:101bf00054cd200084bf9f000e0120003c02be0097
:101c00002c03be000605be000404be0040c6b3009f
:101c100080cf5000030032006540400080cf50006c
:101c20000b003a00e00f5200e08f5a00e00f5b001b
:101c3000e08f5b0006003d006044b8006055b800ce
:101c40000404540085845c0006055d0087855d0002
:101c5000e80f570003003200f00f57003a003a0037
:101c60000200370030002000010037004000200053
:101c7000e00f5400e08f5c00e00f5d00e08f5d003e
:101c800004003a00dc0890008d012000e08f500035
:101c9000060032008e00e900888060008fba97004d
:101ca000e5c07800f1e79f007d012000800078000a
:101cb0008100e900050033008b05d1000a85d300bf
:101cc0008984d3000884d300f9ff3700089ebe0042
:101cd0000a96be008e00e900110037008d06e9006b
:101ce000048160008fb997006344790003fd2f00e1
:101cf0008f81410088f17e00000178000201e90037
:101d0000050033008783d1000683d3008582d3008a
:101d10000482d300f9ff3700049ebe000696be0081
:101d20003c02be002c03be00e00f5200e08f5a00c0
:101d3000e00f5b00e08f5b00a1003400e08f5600f5
:101d4000e6ff3c009e003700ac60900080c6b30008
:101d500080cf50000b00320006003c00e0cf500066
:101d6000080032006640500080cf500058003a0012
:101d700004003700c0c6b30080cf500054003a00c2
:101d80002a003700e00f540004003a005c0890007d
:101d90008d012000e00f5000070032001100090003
:101da0000e84d8008000fd008fb997006340780052
:101db000f0e79f007d01200000027800811f78007d
:101dc000110009000e84d8000002fd00cf00780049
:101dd0000c003700110009000e02d8000001780045
:101de0008d06e9000e90b900000052000fba97006e
:101df000e442780004fd2f000f02420005f27e004d
:101e000002027800e00f520002003200e08f56001c
:101e1000f0ff3c00cfa2de000503780086037800c7
:101e2000049ebe000696be0065003700e00f540019
:101e3000e08f5c0004003a005c0890008d012000f7
:101e4000e00f5000070032006171b9000800be00c9
:101e50004f0507000fb9970062417800f2e79f0035
:101e60007d0120006175b9000a01be000800be00b6
:101e7000730307000b0037000a01be000800be0014
:101e8000d40207008d06e90000f1b90002015400f8
:101e90008fb997006342790003fd2f008f814100c5
:101ea00084f17e000004be00e00f5000e08f580077
:101eb00002003200e08f5600efff3c00088ebe00ab
:101ec0004fc8de0020069800300698003c0037001e
:101ed000e00f5400e08f5c00e00f5d00e08f5d00dc
:101ee00004003a005c0890008d012000e00f5000d3
:101ef0000b0032000e027800cfa2de00050378004e
:101f0000860378000800be000a01be0092050700a3
:101f10008fba9700e5427800f5e79f007d01200029
:101f20000e007800cf80de00010178008201780089
:101f3000c0b79f00d1b79f00e2b79f00f3b79f00e3
:101f40000203be000002be000800be000a01be007f
:101f50007a0507000f0037004fb29700dfb29700f5
:101f60006fb39700ffb397000800be000a01be00e0
:101f70007d0507008d06e90000f2b9000404540055
:101f80000fba9700e4427c0004fd2f000f024200cc
:101f900005f27e00009ebe000296be003c04be001c
:101fa0002c05be00e00f5400e08f5c00e00f5d00e8
:101fb000e08f5d0002003400e08f5600e6ff3c0039
:101fc000e80f570010003a000c1090006800600005
:101fd0000d003200f78f560006003e0008fd2f006e
:101fe0000f044400e8c07e0000c3b30080cf50005f
:101ff000050032008d06e90002c3b30001fd2f0089
:102000008f80400082f07e0078811600120e9800ca
:102010006c00900003fd2f008f8141008d804100f6
:10202000aef907001c089000dc089000810f5000fa
:1020300006003d0000805000000e98000c1090003b
:102040000040a100001698000f003700e08f5000fc
:102050000d003d008c109000f4806000f08f500067
:1020600009003a007c099000fc00900081005100ba
:102070000c09900082805000008050004240a9006e
:1020800001003400000e98004f0778004f06be0094
:102090004f05be004f04be004f02b1000000060015
:1020a0000400370090cf1000050032000000e80067
:1020b0000201e900e00f5100faff3a000200780047
:1020c00000000600889fbe008004780066844000ff
:1020d0001800d0004500de00f27f2000820f500083
:1020e00010003a00800ceb00180478006f016400c7
:1020f000200020001b003a0021019000e00f510059
:1021000018003a0011019000e00f510015003a004c
:1021100010002000910f110012003200200020005a
:1021200010003700e00f500004003a000100780072
:10213000d0010700e00f500008003c00f20028002a
:102140001801610001fe2300010c710021c02f0065
:10215000810c40000080eb0002003700800ceb0097
:102160000000eb004f04be00000006000400fa006f
:10217000889fbe0000047800e6044400190078003f
:102180008000d000c508de00f47f2000848f50005e
:102190000e003a00ef006000200020006a003a00c4
:1021a000a8009000e08f500067003a00980090006f
:1021b000e08f500064003a0010002000988f10005b
:1021c00061003200200020005f003700e08f5000e7
:1021d0000a003a0008007800c2bf9f00d3bf9f00ea
:1021e000a4010700800078000000eb004fb99700c1
:1021f000dfb99700808f500053003c006108b900a0
:102200000001410081814900e07f2000800f5100e2
:10221000e08f59000e0034008000eb00998f100011
:1022200004003d006000b8000200200003ff2f0002
:10223000030037006000b8000200200003ff270001
:10224000009cbe000294be00100020003e0037003b
:10225000e00f5100e08f5900050034004411dd000b
:10226000f000280019006000800c71003500370074
:102270001900780004002800040260006f0060006c
:102280000040a000800c780061015100e0815900fd
:10229000c0fc2f00f1ff2f00800f5100818f5900eb
:1022a00006003d00840c78000000eb00200498003c
:1022b00010049800000c7800230037008880e800a4
:1022c0006400440005003700110c78009008780085
:1022d00019087800800ceb0070014100ef0f4100fd
:1022e000f9ff35000200ea0015003200880078008e
:1022f00070011000d1027800822add009801780078
:102300008019de00038c7200640444009802780097
:10231000822add00910178008019de008388720036
:10232000990078000209dd00980078008008de003e
:10233000010c7100990078000008de00800c780024
:10234000990c72000080eb004f04be000080fa0080
:1023500000000600889fbe008a9fbe008c1f780088
:10236000000678000205be000404be000401be00a1
:102370000a00be0097010700008ebe000801be00e3
:102380002e0307000002550081825d00240698009c
:10239000350698000c0078004f0678004f05be0007
:1023a0004f04be0000000600f0874700889fbe0073
:1023b0008a9fbe008c9fbe008e1f780000047800ac
:1023c00081447800020678000305780084057800cf
:1023d000e00f550002003c001a0020004cfd2700d1
:1023e00060c6b30080cf54000e00320060c4b3005a
:1023f00080cf54000b00320070c6b30080cf540071
:102400000300320070c4b30080cf540099003a003a
:10241000e48f45007f00350058089000808f5500fc
:102420007c003d008b05e80060c6b30080cf5400ff
:102430001000320060c4b30080cf54000d003200a1
:10244000081090006800600004003a0058089000ee
:10245000800f550001003d005a0c9800580890006c
:102460000b005000500c980002003b000000eb00f5
:10247000500c980018089000e8009000e08f55007c
:1024800026003c0002c3b300827078000000e80020
:10249000100c9800d8089000e08f500003003c001a
:1024a00088109000e880600005003200680190000c
:1024b000e1c2b300017178000000e800100c980040
:1024c000580890008b00ea00810f500001003d0089
:1024d0008005ea008b00ea00210c98008085450009
:1024e0005b0c98008a8f5500010034008a05780043
:1024f0003b0c9800e8009000180890000080400015
:102500000b0178008c00780074f8070058089000e0
:102510008b0550004b0c9800be0037008b0f550008
:1025200018003d00008040000a0178008c0078000f
:102530006af807009808900081004500110c980087
:102540000a8555002a0c980058089000e00f5000aa
:1025500003003c0008109000680060000600320094
:1025600068019000e0c2b30000f1780038089000e4
:102570000000e800300c980058089000400c9800cb
:10258000a4003700008040000b0178008c00780028
:1025900052f807001808900000804500100c9800c1
:1025a0000b055500d8089000e08f500003003c0058
:1025b00088109000e88060000500320068019000fb
:1025c000e1c2b300017178000000e800100c98002f
:1025d00058089000800f5500010034000005780075
:1025e000e800900018089000008040008b00460032
:1025f0000a01780039f80700180890000a00400026
:10260000100c9800580890000a0550002a0c9800f9
:102610008000370070c6b30080cf54000300320042
:1026200070c4b30080cf540012003a0058089000e4
:10263000800f550004003d00081090006800600005
:1026400001003a005a0c9800580890000000e90078
:10265000500c980002003b000000eb00500c98006a
:1026600070c6b30080cf54000a00320059c4b300d2
:102670000b00370010c6b30080cf540007003200b3
:1026800010c4b30080cf540005003a0009c5b30060
:102690000300370059c6b3000100370009c7b30073
:1026a00018089000e80090009c7078000000e80096
:1026b000100c9800d8089000e08f500003003c00f8
:1026c00088109000e88060000500320068019000ea
:1026d000e1c2b300017178000000e800100c98001e
:1026e00058089000e00f5000100034000a05e9007f
:1026f000800f55000100340000057800e8009000cc
:1027000018089000008040008c00e8000a01780062
:10271000f2f70700180890000a004000100c98001b
:10272000580890000a0550002a0c9800e800900014
:102730001808900000804000095878000007e80061
:10274000e08f550004003500b1c2b30001487800a5
:102750000e06780004003700d1c2b30001487800ab
:102760000e0678008b05ea008006eb000b003700b0
:10277000a20020008b007800728057008a000700ba
:102780007fb597008fbd97008b4078007c80570005
:1027900001f07e008d06e8008a057800e08f550084
:1027a000f3ff3c00e18f560013003c0050c6b3001d
:1027b00080cf54000300320050c4b30080cf5400d7
:1027c00003003a000e06780000c3b300005e7800f4
:1027d000e08f560008003a0000c3b300005e7800a6
:1027e000050037008d06e9007c8157000d0041008f
:1027f00001c3b30010de4000e08f5600f9ff3a003d
:10280000e800900018089000008040000006560084
:102810003c0c98000810900074006000f00f50000d
:102820000e003a0098089000780090000080400068
:10283000a808900001004000b80890000100400086
:10284000c808900001004000f8089000810f500077
:1028500002003d0000805000000c98004f077800f7
:102860004f06be004f05be004f04be000f01b10071
:1028700000000600e60040009101780006002800f4
:1028800006836100ef816100830878001200200058
:102890000f003a00a0019000e08f51000c003a00b8
:1028a00090019000e08f510009003a00908f1100d4
:1028b00007003a003900370094087800130a7800be
:1028c0009009780005087800700151000200370077
:1028d000640240008081e80091027800e08f52009d
:1028e000f5ff32001200370094037800cf3bde0082
:1028f000858242008588730093037800cf3bde0019
:102900009402780085824200058a73009303780060
:102910008783430090027800cf2ade008589730008
:1029200090027800058842000201e90002003700a9
:10293000640240008081e80091027800ef8f52002d
:10294000e9ff36000f00370094037800cf3bdd002d
:102950009002d1000588730093037800cf3bdd001f
:102960009402d100058a730091037800cf3bdd000b
:102970009302d100858973009108d1000201e8001b
:10298000020037000082e800e40140009102780074
:10299000ff8f5200ecff3e00ef8862009108730049
:1029a000020078000000060080017800811f780096
:1029b000110009008200d8008001fd00cf007800de
:1029c000030878000299b9000281500012009800b3
:1029d00000000600839f68000100e00002003d0047
:1029e00060001000e08018000300e00002003d00dd
:1029f00060011100e0811900910007004f00e00024
:102a000002003b0060001000e0801800000006009b
:102a1000889fbe008a9fbe008c1f78000006eb00d6
:102a2000e00f5000e08f5800e00f5900e08f590090
:102a300007003d006044b8006055b8000000540035
:102a400081805c0002015d0083815d001c0020002c
:102a5000e00f5200e08f5a00e00f5b00e08f5b0058
:102a600007003d006044b8006055b80004025400ff
:102a700085825c0006035d0087835d000c00a20078
:102a80007f000700e00f5600060032006022b80009
:102a90006033b8000000520081805a0002015b00e0
:102aa00083815b004f0678004f05be004f04be00d7
:102ab00000000600881f7800010478000100e00093
:102ac00005003d0060001000e080180002003b009f
:102ad00001f02c00030037008b00070008f0a7006e
:102ae00001f0a0004f04780000000600889fbe009f
:102af0008a9fbe008c1f7800a3000700aa00330045
:102b000003866c006450e100240032006420e10080
:102b1000270032006150e100220032006120e10014
:102b2000210032008b854200eb07b1000134b80070
:102b3000003ab8000804420089844a00013ab8000b
:102b40000030b8008880400009014a0004003300ca
:102b50000000400081804800020149008b05e90027
:102b6000c909dd008301700001003200130020005c
:102b7000c814de004814dd004709de001200b20070
:102b8000c808de00088470009700070001f0a1006b
:102b90000cf0a70001f0a0008c0037006120e100dc
:102ba0008e0032000801be000200be00f7ff3700b1
:102bb0006150e100fcff3a00880037000001be00d0
:102bc000af0007000470a70003f0a1006509b10081
:102bd000160032000d0035006828e10006003500bf
:102be000f0ff2f00f1ff27000300e00013003b007f
:102bf000010028000000050000004000818048001e
:102c00008502e900fcff3a0008003700f88f420017
:102c100002003c008000eb00000005008100d100b4
:102c20000080d3008502e800fcff3a000300e000ca
:102c300002003b0060001000e08018000000060069
:102c40006022b800060220000000d0008180d2007f
:102c50000482d2008582d2000000a000020252004d
:102c600083825a00030031000202420083824a003c
:102c70000000a1000603e900f3ff3a00000006008f
:102c8000889fbe008a9fbe008c9fbe000404b800cf
:102c90000506b8008904460060854e000606b800a7
:102ca0000a054600e0854e000706b8008b05460081
:102cb000040eb800890446000a854e00e0854d00e8
:102cc000050eb8000a0546008b854e00060eb800ba
:102cd0008b0546000416b8000a0546008b854e0099
:102ce0000516b8008b054600041eb8008b0546008b
:102cf0000800be000a01be004f06be004f05be0020
:102d00004f04be0000000600889fbe008a9fbe00e0
:102d1000010578000000e000180032000004be0049
:102d20006011b8006b0920000982cf000200390051
:102d30000882cf000441b000694252000e00320008
:102d400008003b0082817100610164008904d100a8
:102d50000884d3008b05e8000442e800f9ff3a003c
:102d6000050037000804440089844c008b05e90005
:102d70000442e900fbff3a001b0007004f05be00bc
:102d80004f04be00000006000004be003c00070027
:102d90000003be000405be000200be0038000700ac
:102da000844f7500000006000200be006450e10080
:102db000050036006420e100020036000968a30027
:102dc00001003a000800be000160a0004f06780034
:102dd0004f05be004f04be0000000600f0ff2f00ac
:102de000f1ff2700f9ff37008100200061805500c6
:102df0000b003d000b00200061fe2f000100e100f0
:102e00001d00340082817100610164008904d100d9
:102e10000884d3000000e800faff3a0071002000a7
:102e200061006400030070000200600009003200cd
:102e300061044400e0844c000988a50005003200cc
:102e40008b05e8006808e10002003a008904d1001f
:102e50000884d300f20f20000258e10005003d0075
:102e6000c75ddd00f907b2008980750008007800b1
:102e7000000006000bf827008b007800000005001a
:102e8000c70ade00f107b200f50fb20008003200f9
:102e9000e1cf4200020032000170a00024000500d2
:102ea000810f700001003200040805004400050095
:102eb000810f700002003a00140005008502e9004d
:102ec0000000400081c04800fcff3b000170a000f2
:102ed0002400050081037800e9ff07000001be001f
:102ee0006000b8000478a30013003a006220e100fb
:102ef00015003e000d0039008301d1000281d3008e
:102f00008180d3008301d1000281d3008180d3006e
:102f10008301d1000281d3008180d3000538b00045
:102f2000c42add00f300b2008381720007f0a7001d
:102f300003f0a00000000600f3ff2700f2ff2f00bf
:102f40006110b900fbff370003ff2700f7ff3700d0
:102f50008f1fd100f90107008f87e9000000e00012
:102f6000000006001400fa00889fbe008a9fbe0081
:102f70008c9fbe000004be000205be006800470032
:102f80000a90be000890be00150207000070a7005e
:102f90000bf0a100304320009e029000808252007e
:102fa000b0fe2f000028e10011003d00b0fc2f0012
:102fb0000028e100150034001e0990008e089000e2
:102fc0007e0090000501b0000201d1008180d30095
:102fd0000080d3008502e800fbff3a000b00e00010
:102fe0003a023b0060001000e08018003702370012
:102ff000f0ff2f00f1ff27000b00e00033023b0041
:103000000100280000002000300237006000b800f6
:103010002e0237004f89de0082017800300237002f
:1030200007f0a20065023700809feb00c301070094
:103030008f87e9000000e00000000600020ab900e6
:10304000001bb9000200b80081004200810043006b
:10305000000006002800fa00889fbe008a9fbe007c
:103060008c9fbe0003866b00040207000028a300ab
:1030700064003a000128a30067003a000008a3009a
:1030800062003a000108a30065003a001e009000ab
:10309000be08900081064000ed3fb100f48057006b
:1030a000ee019000111ab8008e099000311bb80093
:1030b0009e099000311cb800511db800f4855700de
:1030c00046000700fe0190003a0007008b85e800eb
:1030d0003e0007008e09900040000700ee019000be
:1030e000340007008b85e800380007008e09900047
:1030f000400007009e0990001b18b800890440009a
:103100000a854800fe019000340007008b85e80026
:1031100038000700ee019000300007008e09900093
:103120001b18b800890440000a8548000a98a300cb
:1031300008003a000402420085824a0006034b0060
:1031400087834b0008044c0089844c000a054d001d
:103150008d06e90084827200850273004c3add001e
:10316000850272000100320015002000443ade00a2
:103170001400b2004538de00cb45dd000b007000c6
:10318000c540de00cb4ddd008b8070004549de0080
:10319000cb55dd000b017100c551de000d03780039
:1031a0008302070003f0a1000cf0a70003f0a000c9
:1031b000c60137001b18b80085024000068348008e
:1031c000e0834b0060044c00070037001b18b80078
:1031d0000603400087834800faff37001b18b80039
:1031e0008703400008844800e0844c0060054d00df
:1031f000000006001b18b80008044000898448003d
:10320000faff37000108a300ad013a005800be00e4
:103210005801be00e3ff37000008a300a8013a00f0
:1032200009047800f9ff37002800fa00889fbe00e3
:103230008a9fbe008c9fbe0003866b008f01070033
:103240006400e100440032006408e1004a003200fa
:103250006100e100460032006108e10049003200ef
:10326000ec0647006000b8003d02be003d03be0012
:10327000f48657006011b8003d04be003d05be0055
:103280007d0320000b0037000000a0008d06e90040
:10329000130032000402420085824a0006034b00fc
:1032a00087834b00000040008180480002014900f4
:1032b000838149000802520089825a000a035b0098
:1032c0008b835b00f0ff3b000802420089824a00ca
:1032d0000a034b008b834b008d06e900edff3a009b
:1032e0008482720086827200f707b20087827200c1
:1032f00001003200150020001e0490003e0b9000db
:1033000006035400e63fb0000368a3000700320044
:103310000000a7000500a0008301d1000281d300b6
:103320008180d3000080d3000603e8008301d10030
:103330000281d3008180d3000080d3000002eb0023
:103340000482d2001a02070003f0a1000cf0a700cb
:1033500003f0a0005d013700640247006408e1004b
:10336000570132003400be003401be00f6ff3700c2
:103370006108e100520132006011b8006000b8003d
:10338000f1ff370003ff270002002000fbff37009a
:103390002bfe07000400be0000000600889fbe0050
:1033a0008a9fbe003004be002005be000404440015
:1033b00085844c0006054d0087854d000898be00a9
:1033c0000a90be009500070002003100680040002e
:1033d0001008e8004f05be004f04be0000000600c4
:1033e000889fbe008a9fbe008c1f78000006780070
:1033f0003c04be002c05be000400540085805c0027
:1034000006015d0087815d00009ebe00029ebe0039
:103410001000200081000700010039000000eb00cf
:103420001c0e10004f0678004f05be004f04be0072
:10343000000006001200fa00889fbe008a9fbe00ae
:103440008c9fbe000205be000004be00e4b79f00d2
:10345000f5b79f0086bf9f0097bf9f000000eb005d
:10346000d0b79f00c0b79f00b0b79f00a0b79f0024
:1034700090b79f0000067800fd032000dfb19700a1
:103480004fb0970003814100bfb09700e08f51001b
:1034900004003d00660007007e805700bfff070064
:1034a00003003700620007007e805700ccff070052
:1034b000dfb09700e08f50000700350014002000b7
:1034c000050020006033b80008047200898472008f
:1034d0000a0573008b8573000c06e8008d0f5600fb
:1034e000e6ff3400e08f500006003d006fb2970009
:1034f000ffb297000fbb97009fbb97007e805700dd
:10350000a6ff07005fa89700e00f500004003a00f4
:103510001fb49700afb497003fb59700cfb59700a1
:103520000800be000a01be004f06be004f05be00e7
:103530004f04be000080fa0000000600881f7800db
:1035400018002000881f7800baff07008f87e90065
:103550004f04780000000600801feb00b5ff070055
:103560008f87e90000000600889fbe008a9fbe008a
:103570008c1f78004e00070005003d005100070039
:1035800009003d005b0007000006eb000600370065
:103590005d00070004003d006044b8006055b800bd
:1035a000540007001c002000e4ff0700e00f560055
:1035b000010032005a0007004f0678004f05be0098
:1035c0004f04be0000000600889fbe008a9fbe0018
:1035d0008c1f78003600070003003d00390007000b
:1035e00006003d00040037004700070003003d00cf
:1035f0006044b8006055b8003e000700d6ff0700e1
:10360000e00f560001003200450007004f06780029
:103610004f05be004f04be00000006000440e1005c
:1036200005c8e10006d0e10007d8e100000006006f
:10363000cf01de0002817100b2b79f004f09de00aa
:103640000000400000007100a0b79f000fb097007d
:103650004f01de00818040008100710091b79f0022
:103660007faa9700cf20de0000004000008070009d
:1036700080b79f000800be000a01be004f18de00a0
:103680000402420000027200f4af9f0008044400ec
:1036900089844c000a054d008b854d004fb2970080
:1036a000dfb297006fb39700ffb3970000000600ea
:1036b000e00f5000e08f5800e00f5900e08f5900f4
:1036c000000006006044b8006055b80000005400d7
:1036d00081805c0002015d0083815d001c00200090
:1036e0000820e10009a8e1000ab0e1000bb8e10000
:1036f000000006000402540085825c0006035d00a1
:1037000087835d00000006000006eb00e00f52001a
:10371000e08f5a00e00f5b00e08f5b0000000600c6
:103720006022b8006033b8000000520081805a0067
:1037300002015b0083815b0000000600889fbe00e1
:103740008a9fbe008c9fbe000404be000605be001a
:10375000809fbe00829fbe004101070004067800e2
:103760000800be000a01be003d0107008406780083
:103770004f03be004f02be008d4f76007fb0970012
:1037800013003300f0ff2f008b8f6b0006003b000f
:103790000d0666000c00a7000a00370007f0a6001f
:1037a000100020000a003700880f5200898f5a004d
:1037b0008a0f5b008b8f5b00030039001000200034
:1037c00001003e000000200007f0a7000000ea0012
:1037d0004f06be004f05be004f04be0000000600ad
:1037e000800078005002be005003be004439de0065
:1037f000f700b200f37f20000301610009003200ee
:103800000218e10016003a0085017200830173007e
:10381000838173000008200015003a00400020005a
:1038200013003700850172008301730083817300e8
:1038300005003a0004a8be0006a8be001000200043
:103840000b0037000201e9000402420085824a00b1
:1038500006034b0087834b000748a300f9ff3200a3
:103860000740a00004a8be0006a8be00200020005b
:10387000800098009200980000000600680447004d
:103880000294be000094be00fc0447008694be0073
:103890008494be0009007800d1ff0700080078007a
:1038a000cfff070099007800814f70000b003b00ac
:1038b0000800be00fc0007004f00b1000300370005
:1038c000f3ff2700f2ff2f006110b9004f06be0082
:1038d0004f05be004f04be000080fa000000060045
:1038e000889fbe00830478000300e0002c003500b0
:1038f00003003c00008270000402710026003200c8
:1039000036432000c50020008383cf000a00390021
:103910000541b1008283cf00070039000541b100a5
:103920008183cf00040039000541b1008083cf00be
:10393000010039000541b10085c353006022b80081
:10394000120032000a003b008482720061026000b3
:103950008301d1000281d3008180d3000080d30095
:103960000603e8008743e800f7ff3a000700370046
:103970000000400081804800020149008381490025
:103980000603e9008743e900f9ff3a0088000700d1
:1039900009f0a70003f0a0004f04be0000000600dd
:1039a00060001000e080180060011900e08119003b
:1039b000d3ff3b00033e2c00f7ff37002800fa003e
:1039c000889fbe008a9fbe008c9fbe0007067800bd
:1039d000878669000c003b000304780087047800a8
:1039e00008f0a10009f0a100840f5000858f580055
:1039f000860f5900890f5c00030033000cf0a20011
:103a000001003a000cf0a1009cff07006400e100f7
:103a10005f003200780147006408e1006100320075
:103a20006c014700748557003200be001201be00d1
:103a30003a04be001a05be001e039000be0a9000a4
:103a40008503530006003d000004fd008104fd00d5
:103a50000205fd008305fd008703ea0005037800e9
:103a60000df8a3000400320060041400e0841c0080
:103a700060051d00e0851d006022b8007d03200068
:103a80000d38e1008006eb000b0039004433dd0007
:103a9000f300b200830173003900370084827200a2
:103aa0000d027800e10664008b85d1000a85d30001
:103ab0008984d3000884d3008703e900f7ff3b0023
:103ac00008004000898048000a0149008b814900b4
:103ad00004003b0060001000e08018006001190045
:103ae000e08119000358a300090032008d827200a2
:103af00084827200610260008301d1000281d300e0
:103b00008180d3000080d3000603e8001b0037004b
:103b10000348a30017003a000600e0001700340035
:103b20000603e9000d00a300000048008180480062
:103b300002014900838149000348a3000f003a00b5
:103b40000600e000090034000603e9000000400020
:103b500081804800020149008381490001003a0048
:103b60000003eb000348a300f5ff32006022b80019
:103b70000200370084827200618266000c00070038
:103b800003f0a1000cf0a70003f0a0004fff3700e6
:103b9000640147006408e10002003a000df8a30048
:103ba00047ff3a003200be001201be0047ff370057
:103bb0001800200057002000080453000d003d00ad
:103bc0000600200097fc2f000740e1001e00340093
:103bd00084827200610260008301d1000281d300ff
:103be0008180d3000080d3000804e800f8ff3a0089
:103bf00047002000610460000504740004046400b0
:103c00000d00320061004000e08048006001490082
:103c1000e081490003b8a500070032000603e80070
:103c20006538e10004003a008301d1000281d3002d
:103c30008180d3000080d300f87f20000830e100ad
:103c400003003500080378006000b8006011b80078
:103c50004433dd00f300b20083017300000006006e
:103c600005ff270005826100070032000428e100fb
:103c700001003200240005000600070001003a00a0
:103c8000440005000408050002000700f9ff3a009f
:103c9000140005006f8261008102700085027100ce
:103ca0008502720000000600e48240001078a30044
:103cb00007003200640240001178a3003400be0007
:103cc0001401be00040032000330a700000006000b
:103cd0003500be001501be000330a0000000060044
:103ce0002200f8002400f8002600f8000100b800c7
:103cf0000000e9004400f800010f200021028800c4
:103d0000820078003800f8003a00f8003c00f80023
:103d10003e00f8004000f8000080080004000000a9
:103d2000b30278000500ca00b40278000500c9009b
:103d30003200cc004000f9003e00f9003c00f900e0
:103d40003a00f9003800f900010078004400f90059
:103d50002600f9002400f9002200f9000000060006
:103d60002200f8002400f8002600f800889fbe001a
:103d70008a9fbe008c9fbe004400f8000d0f2000fb
:103d80002d028800830678000106e9008205e9001b
:103d900081804000020141000000e900240035005c
:103da000050578003800f8003a00f8003c00f800fb
:103db0003e00f8004000f8000b80080014000000ee
:103dc000040478008a0478001201c3003800f80067
:103dd0003a00f8003c00f8003e00f8004000f8000f
:103de0000c80080003000000380378009903780075
:103df0001201c600828444004000f9003e00f90030
:103e00003c00f9003a00f9003800f9003300cd0019
:103e10000a85e8004000f9003e00f9003c00f90086
:103e20003a00f9003800f90001024200daff3700d9
:103e30000d0078004400f9004f06be004f05be009b
:103e40004f04be002600f9002400f9002200f9000a
:103e5000000006002200f8002400f8002600f80008
:103e60004400f800050f2000250288000100b8007a
:103e70000000e900820078003800f8003a00f800fd
:103e80003c00f8003e00f8004000f8000080080008
:103e900002000000b30278001301c0003200cd0020
:103ea0004000f9003e00f9003c00f9003a00f9003a
:103eb0003800f900010078004400f9002600f900fc
:103ec0002400f9002200f900000006002200f8009a
:103ed0002400f8002600f8002800f8002a00f80066
:103ee0002c00f8000100b8000000e9004400f800d0
:103ef000010f200021028800820078003800f800bd
:103f00003a00f8003c00f8003e00f8004000f800dd
:103f10000080080005000000b30278000500ca0018
:103f2000b40278000580ca000030cb003200cc001b
:103f30004000f9003e00f9003c00f9003a00f900a9
:103f40003800f900010078004400f9002c00f90065
:103f50002a00f9002800f9002600f9002400f900e1
:103f60002200f90000000600820278000000e9004b
:103f70000102e900818040003800f8003a00f800b2
:103f80003c00f8003e00f8004000f8000480080003
:103f90000f000000030278003800f8003a00f80033
:103fa0003c00f8003e00f8004000f80000800800e7
:103fb0000100000014197800010242004000f900dd
:103fc0003e00f9003c00f9003a00f9003800f90021
:103fd0008381e8004000f9003e00f9003c00f90050
:103fe0003a00f9003800f9000500780000000600ea
:103ff0002200f8002400f8002600f8004400f80031
:10400000040f200024028800010278000000e9006b
:104010003800f8003a00f8003c00f8003e00f800d4
:104020004000f8000080080004000000b2027800a0
:104030000500ca00b30278000500c9003100cc00b9
:104040004000f9003e00f9003c00f9003a00f90098
:104050003800f900040078004400f9002600f90057
:104060002400f9002200f900000006002200f800f8
:104070002400f8002600f800889fbe008a1f780000
:104080004400f800070f200027028800821f7800f4
:104090008103e9000005eb003800f8003a00f80061
:1040a0003c00f8003e00f8004000f80007800800df
:1040b0001400000003047800840478001201c30097
:1040c0003800f8003a00f8003c00f8003e00f80024
:1040d0004000f8000a80080002000000b8027800e2
:1040e000290378001201c4004000f9003e00f900e5
:1040f0003c00f9003a00f9003800f9003200cd0028
:104100000482e8000a05e8004000f9003e00f900da
:104110003c00f9003a00f9003800f9000482e90097
:104120008381e80001055000210034000a05e90000
:104130003800f8003a00f8003c00f8003e00f800b3
:104140004000f8000a800800130000000304780013
:10415000840478001201c3003800f8003a00f80027
:104160003c00f8003e00f8004000f800078008001e
:1041700002000000b8027800290378001201c40090
:104180004000f9003e00f9003c00f9003a00f90057
:104190003800f9003200cd008381e8004000f900ca
:1041a0003e00f9003c00f9003a00f9003800f9003f
:1041b0008703e900210035003800f8003a00f800d4
:1041c0003c00f8003e00f8004000f80007800800be
:1041d0001400000003047800840478001201c30076
:1041e0003800f8003a00f8003c00f8003e00f80003
:1041f0004000f8000780080002000000b8027800c4
:10420000290378001201c4004000f9003e00f900c3
:104210003c00f9003a00f9003800f9003200cd0006
:104220008381e8008703e9004000f9003e00f900bf
:104230003c00f9003a00f9003800f9004f0078001e
:104240004400f9004f0578004f04be002600f90035
:104250002400f9002200f900000006003600f800f2
:10426000810178000000e90000800900b2187800a0
:10427000030078003600f90000000600840378008f
:104280008102e9008502d000050342008102d100cd
:104290008502e9003800f8003a00f8003c00f80018
:1042a0003e00f8004000f800058008000200000011
:1042b0009602780017137800851b78004000f900fb
:1042c0003e00f9003c00f9003a00f9003800f9001e
:1042d0003620020000000000000006002200f80066
:1042e0002400f8002600f8004400f800040f200025
:1042f000240288000000e9001201c3003800f80021
:104300003a00f8003c00f8003e00f8004000f800d9
:10431000008008000200000031027800b20278003c
:104320001201c0004000f9003e00f9003c00f90015
:104330003a00f9003800f9000000cd004400f9000f
:104340002600f9002400f9002200f9000000060010
:10435000b10278000009eb000002e9000700340018
:10436000b10178000328e10002003c0083027800dc
:10437000040950000402e900f9ff3c000500780040
:1043800000000600b10278000009eb000002e9001d
:1043900007003400b10178000328e1000200350075
:1043a00083027800040950000402e900f9ff3c0090
:1043b00005007800000006002200f8002400f80044
:1043c0002600f8004400f800040f200024028800b2
:1043d000811f78000000e9003800f8003a00f8007a
:1043e0003c00f8003e00f8004000f80000800800a3
:1043f0000300000032027800b30278001301c0000d
:104400003100cd004000f9003e00f9003c00f90009
:104410003a00f9003800f9004f0078004400f90034
:104420002600f9002400f9002200f900000006002f
:104430002200f8002400f8002600f8004400f800ec
:10444000030f200023028800810178000000e900aa
:10445000040028001201c3003800f8003a00f800f8
:104460003c00f8003e00f8004000f8000080080022
:1044700003000000b20278001201c0003100cc003d
:104480001201c3004000f9003e00f9003c00f900b1
:104490003a00f9003800f900030078004400f90000
:1044a0002600f9002400f9002200f90000000600af
:1044b0002200f8002400f8002600f8004400f8006c
:1044c000020f2000220288000000e9001201c30050
:1044d0003800f8003a00f8003c00f8003e00f80010
:1044e0004000f80000800800010000003102780060
:1044f0001001f0004000f9003e00f9003c00f90016
:104500003a00f9003800f9000000cd004400f9003d
:104510002600f9002400f9002200f900000006003e
:104520002200f8002400f8002600f8004400f800fb
:10453000040f200024028800811f78000000e90099
:10454000030278003800f8003a00f8003c00f80058
:104550003e00f8004000f800008008000200000063
:10456000b20278001301c0003100cd004000f90014
:104570003e00f9003c00f9003a00f9003800f9006b
:104580004f0078004400f9002600f9002400f900eb
:104590002200f900000006002200f8002400f800c4
:1045a0002600f8002800f8002a00f8002c00f80087
:1045b0004400f800040f2000240288000102780063
:1045c0000000e9003800f8003a00f8003c00f8006c
:1045d0003e00f8004000f8000080080005000000e0
:1045e000b20278000500ca00b30278000580ca0054
:1045f0000030cb003100cc004000f9003e00f90053
:104600003c00f9003a00f9003800f9000400780095
:104610004400f9002c00f9002a00f9002800f900f4
:104620002600f9002400f9002200f900000006002d
:104630003600f800020378000002d0008102e90091
:1046400082007800030178002e21020000000000a3
:1046500004004000010020000580090001187800d6
:0c466000060078003600f900000006009b
:020000040000fa
:0200000401f009
:04000800ffff0000f6
:020000040000fa
:0200000401f009
:04000c00fbff0000f6
:020000040000fa
:0200000401f009
:040010007bff000072
:020000040000fa
:0200000401f009
:040014007fff00006a
:020000040000fa
:0200000401f009
:04001800f8ff0000ed
:020000040000fa
:0200000401f009
:04001c00deff000003
:020000040000fa
:100008000c71000002710000fe700000fa70000020
:10001800f6700000087100000c7100000c710000ff
:100028000c7100000e3a00000c7100004c5f0000db
:10003800024f0000483a00000c7100000c710000eb
:100048000c7100000c7100000c710000605b000076
:10005800265b00000c7100000c7100000c710000a0
:100068000c7100000c7100000c7100000c71000094
:100078000c7100000c7100006a3b0000a43b0000fa
:100088000c7100000c7100000c7100001668000073
:10009800046000000c7100008c5c0000525c0000e1
:1000a8000c7100000c7100000c7100000c71000054
:1000b8000c710000823a0000bc3a0000f63a0000d9
:1000c800303b00000c7100000c7100000c71000046
:1000d8000c7100000c7100000c710000226000001f
:1000e800c85f00000c7100003e4500000c71000064
:1000f8000c7100000c7100000c7100000c71000004
:10010800e66c00000c7100000c7100000c7100001e
:100118000c7100000c7100000c7100000c710000e3
:100128000c7100000c7100000c7100000c710000d3
:100138000c7100000c7100000c7100000c710000c3
:100148000c7100000c7100000c7100000c710000b3
:100158000c7100000c7100000c7100000c710000a3
:100168000c7100000c7100000c7100000c71000093
:100178000c7100000c7100000c7100000c71000083
:100188000c7100000c7100000c7100000c71000073
:100198000c7100000c7100000c7100000c71000063
:1001a8000c7100000c7100000c7100000c71000053
:1001b8000c7100000c7100000c7100000c71000043
:1001c8000c7100000c7100000c7100000c71000033
:1001d8000c7100000c7100000c7100000c71000023
:1001e8000c7100000c7100000c7100000c71000013
:0801f8000c7100000c71000005
:020000040000fa
:100208000c71000002710000fe700000fa7000001e
:10021800f6700000087100000c7100000c710000fd
:100228000c7100000e3a00000c7100004c5f0000d9
:10023800024f0000483a00000c7100000c710000e9
:100248000c7100000c7100000c710000605b000074
:10025800265b00000c7100000c7100000c7100009e
:100268000c7100000c7100000c7100000c71000092
:100278000c7100000c7100006a3b0000a43b0000f8
:100288000c7100000c7100000c7100001668000071
:10029800046000000c7100008c5c0000525c0000df
:1002a8000c7100000c7100000c7100000c71000052
:1002b8000c710000823a0000bc3a0000f63a0000d7
:1002c800303b00000c7100000c7100000c71000044
:1002d8000c7100000c7100000c710000226000001d
:1002e800c85f00000c7100003e4500000c71000062
:1002f8000c7100000c7100000c7100000c71000002
:10030800e66c00000c7100000c7100000c7100001c
:100318000c7100000c7100000c7100000c710000e1
:100328000c7100000c7100000c7100000c710000d1
:100338000c7100000c7100000c7100000c710000c1
:100348000c7100000c7100000c7100000c710000b1
:100358000c7100000c7100000c7100000c710000a1
:100368000c7100000c7100000c7100000c71000091
:100378000c7100000c7100000c7100000c71000081
:100388000c7100000c7100000c7100000c71000071
:100398000c7100000c7100000c7100000c71000061
:1003a8000c7100000c7100000c7100000c71000051
:1003b8000c7100000c7100000c7100000c71000041
:1003c8000c7100000c7100000c7100000c71000031
:1003d8000c7100000c7100000c7100000c71000021
:1003e8000c7100000c7100000c7100000c71000011
:0803f8000c7100000c71000003
:020000040000fa
:10466c00245000005352000046310000303000004e
:10467c002c3000002c3100003932000030300000aa
:10468c002c3800002c3100002c3000002a330000a4
:10469c00390d00000a00000009000000860000002f
:1046ac00004b0000000800000100000000000000aa
:1046bc00410b0000400b0000430b0000420b0000bc
:1046cc004b0b00004a0b00003f0b00003e0b0000a0
:1046dc003d0b00003c0b00002e0b00002e0b0000cd
:1046ec002e0b00002e0b00002e0b00002e0b0000da
:1046fc002e0b00002e0b00002e0b00002e0b0000ca
:10470c002e0b00002e0b0000330b0000320b0000b0
:10471c00310b0000300b0000370b0000360b000093
:10472c00350b0000340b00002e0b00002e0b00008c
:10473c002e0b00002e0b00003b0b00003a0b000070
:10474c00390b0000380b00002e0b0000450b00004d
:10475c00440b0000470b0000460b00002e0b000022
:10476c002e0b0000490b0000480b00002e0b000024
:10477c002e0b00002e0b00002e0b00002e0b000049
:10478c002e0b00002e0b00002e0b00002e0b000039
:10479c002e0b00002e0b00002e0b00002e0b000029
:1047ac002e0b00002e0b00002e0b00002e0b000019
:1047bc002e0b00002e0b00002e0b00002e0b000009
:1047cc002e0b00002e0b00002e0b00002e0b0000f9
:1047dc002e0b00002e0b00002e0b00002e0b0000e9
:1047ec002e0b00002e0b00002e0b00002e0b0000d9
:1047fc002e0b00002e0b00002e0b00002e0b0000c9
:10480c002e0b00002e0b00002e0b00002f0b0000b7
:10481c004c0b00002e0b00004f0b00004e0b000049
:10482c00000000009201000024030000b504000009
:10483c0046060000d607000064090000f10a0000db
:10484c007c0c0000060e00008d0f00001211000001
:10485c0094120000131400009015000009170000ba
:10486c007e180000ef1900005d1b0000c61c000044
:10487c002b1e00008c1f0000e72000003d220000d2
:10488c008e230000da2400002026000060270000a0
:10489c009a280000ce290000fb2a0000212c0000e1
:1048ac00412d00005a2e00006c2f000076300000c5
:1048bc00793100007432000068330000533400007a
:1048cc003735000012360000e5360000b037000026
:1048dc00713800002b390000db390000823a0000ef
:1048ec00213b0000b63b0000423c0000c53c0000f0
:1048fc003f3d0000af3d0000153e0000723e000041
:10490c00c53e00000f3f00004f3f0000853f0000f8
:10491c00b13f0000d43f0000ec3f0000fb3f000023
:10492c00004000006c610000743a0000202500007b
:10493c006c6900002c2000006c6f00006e6700009a
:10494c003a200000256c0000692c0000206100005a
:10495c006c7400003a200000256c0000690d00000a
:10496c000a7200006d610000743a000020250000fe
:10497c00692c000020250000692c00002025000077
:10498c00692c000020250000692c00002025000067
:10499c00692c000020250000692c00002025000057
:1049ac00692c000020250000692c00002025000047
:1049bc00690d00000a00000000000000000000006b
:1049cc0000000000000000004b0000000000000090
:1049dc0000000000000000000000000000000000cb
:1049ec0000000000000000000000000000000000bb
:1049fc000000000032000000c000000000000000b9
:104a0c00000000000000000000000000000000009a
:104a1c00030200000100000007060000050400006e
:104a2c00090800000b0a00000f0e00000d0c00001e
:104a3c001312000011100000151400009a1d000044
:104a4c000908000099050000200300003e0000004a
:104a5c00dd03000011fb0000a8020000dbfc0000dd
:104a6c003c00000010200000003c00000011000081
:104a7c00200100003c00000010200000020000009b
:104a8c0066060000ac0c0000cc0c0000334f00009c
:104a9c00cc0c000033030000d70f0000cc0c00003e
:104aac00d70f0000d70f0000d70f0000d70f000062
:104abc00d7030000d70f0000cc0c0000334f0000d0
:104acc00080000000400000008000000660600005a
:044adc0033030000a0
:020000040000fa
:104ae0000000fa0040e92f00d0568800e0cfb30064
:104af000ec32020000000000b0568800e0cfb300a6
:104b0000f031020000000000c05688000080fa006a
:104b1000000006000a00fa002007980031079800fc
:104b2000420798004e00900064004000900078001a
:104b30003e0090000080e800100078000180b9007d
:104b4000008fbe001e01be004e0090000080e800f5
:104b5000900078003e009000640040001000780053
:104b60000180b9000000510081805900008fbe0013
:104b70001e01be004218dd00ce10de008100700074
:104b80004210dd00008fbe009e0090002e009000bd
:104b9000010878004e009000900078003e009000e0
:104ba00064004000100078000180b900008fbe0052
:104bb0001e01be004e00900064004000900078008e
:104bc0003e009000100078000180b9000000510004
:104bd00081805900008fbe001e01be004218dd001a
:104be000ce10de00810070004210dd00008fbe009c
:104bf0002e0090000080e8009e00900001087800e0
:104c00004e0090000080e800900078003e00900088
:104c1000100078000180b900008fbe001e01be00a8
:104c20004e009000900078003e0090000080e80068
:104c3000100078000180b900000051008180590007
:104c4000008fbe001e01be004218dd00ce10de0047
:104c5000810070004210dd00008fbe002e00900029
:104c6000640040009e009000010878000080fa0077
:104c7000000006000200fa00605280008080d1002f
:104c8000505280000080d10080805000805380000e
:104c900000805000b0498800b05280008080d10070
:104ca000a05280000080d10080805000805380009e
:104cb00000805000c0498800005380008080d100ef
:104cc000f05280000080d10080805000805380002e
:104cd00000805000d0498800d2498000c14980003e
:104ce000b04980001e3602000000000050488800d5
:104cf000504880000000d100000f78001e007800ae
:104d0000e00f5000240032001e027800b0498000fd
:104d10006101b9004d18dd00c310de008100700094
:104d20004d10dd00811f7800110009004408d800f3
:104d3000cf007800604888001e027800c0498000db
:104d40006101b9004d18dd00c310de008100700064
:104d50004d10dd00811f7800110009004408d800c3
:104d6000cf007800704888001e027800d04980008b
:104d70006101b9004d18dd00c310de008100700034
:104d80004d10dd00811f7800110009004408d80093
:104d9000cf007800804888000080fa0000000600fc
:104da0000000fa00705180008080d10060518000c6
:104db0000080d10000805000304b8800c05180003e
:104dc0008080d100b05180000080d1000080500070
:104dd000404b8800005280008080d100105280003b
:104de0000080d10000805000504b88006296200067
:104df00021912000300020006e2102000000000000
:104e000000004000704a88006296200081912000d6
:104e1000300020006e210200000000000000ea00c7
:104e200000004000804a880062962000e191200046
:104e3000300020006e210200000000000000400051
:104e40008000780010832f0000804000904a880086
:104e50000080fa00000006000800fa002007980011
:104e6000310798003e0090004300de0030079800b4
:104e70002e009000be0090000100b900008fbe001f
:104e80001e009000f10f50000200340000002400ca
:104e9000160037001e009000f10f400002003d0098
:104ea00000002c00110037001e00be004b09dd0081
:104eb0004500de0000007100c588de00008fbe00e6
:104ec0001e007800313a20000100b900008fbe00ba
:104ed0001e01be004518dd00cb10de008100700011
:104ee0004510dd00008fbe001e0090000080fa001b
:104ef000000006000000fa00881f7800384b800090
:104f000021598000204b8000d3ff0700000054008f
:104f1000304b8800584b800021598000004b8000a6
:104f2000cdff070000004400504b8800404b80003c
:104f300080007800f05880000000400000804000b1
:104f4000404b88004f0478000080fa000000060003
:104f50003000fa0083942000629320000196200024
:104f600030002000f81f0200000000002394200001
:104f700002962000c193200030002000f81f02009c
:104f8000000000007800470043902000c2932000fa
:104f90008000780030002000dc21020000000000ca
:104fa00066004700010024000108980066004700e1
:104fb00080089000660047004100980066004700a6
:104fc000c0009000660047000108780078004700a4
:104fd0009000780078004700100078000181b90047
:104fe0007800470090009000780047001000900083
:104ff0000180b90002014000838148007800470029
:10500000a000900078004700200090000180b900c7
:105010000200400083804800008fbe001e00be00da
:105020004209dd004e00de0000007100ce08de0007
:105030008000780030002000000178001100090095
:105040008280d800800078000000240000804000aa
:10505000200798007800470010007800ae0090000c
:105060000100b9004209dd004e00de0000007100c1
:10507000ce88de00800078007800470001087800c4
:105080007800470010009000ae0090000100b900c9
:105090004209dd004e00de0000007100ce88de0017
:1050a00080007800780047001100980078004700e1
:1050b00020009000ae0090000100b9004209dd0020
:1050c0004e00de0000007100ce88de008000780017
:1050d00078004700210098007800470020009000e9
:1050e0008000ea0066004700110098007800470041
:1050f000900090006600470021009800780047006b
:10510000a00090006600470031009800780047003a
:10511000100078008000ea00660047005100980007
:1051200078004700100090008000ea006600470009
:105130006100980078004700900078006600470002
:1051400071009800e60047007e0047008102780069
:1051500024912000800178003200200031002000de
:1051600030002000b01e020000000000fe004700da
:105170007e00470001027800800178002291200023
:105180003100200030002000701e020000000000ee
:105190000080fa00000006001600fa00829120004c
:1051a00021912000300020006e210200000000004c
:1051b0000000ea00504c8800514c80006400470019
:1051c000810178008291200080007800300020006a
:1051d0009022020000000000514c80006400470053
:1051e0006600400081017800229120008000780054
:1051f000300020009022020000000000e400470080
:1052000064004700239120000101780080007800ad
:1052100030002000f81f020000000000640047007a
:10522000e6004000640047006600400083912000d3
:10523000010178008000780030002000f81f020093
:10524000000000006400470066014000e4004700e1
:10525000640047006c0040002efe07006400470019
:10526000800078003000200058220200000000007a
:10527000000f7800000026001e0050001007980064
:10528000e4004700640047009e019000010178009f
:105290008000780030002000902202000000000012
:1052a000e4004700640047008101780000017800b5
:1052b0002191200030002000f81f020000000000b3
:1052c0006400470066004000800078003000200045
:1052d0005822020000000000000f780000002600a5
:1052e0001e0050001007980064004700e6004000d0
:1052f00064004700660040009e01900001017800b4
:1053000080007800300020009022020000000000a1
:1053100064004700e600400064004700660040006b
:105320008101780000017800819120003000200088
:10533000f81f020000000000640047006c004000fd
:105340008000780030002000582202000000000099
:10535000000f7800000026001e0050001007980083
:1053600064004700ec004000640047006c0040000f
:105370009e0190000101780080007800300020003c
:10538000902202000000000064004700ec00400092
:10539000640047006c004000810178000001780043
:1053a000e191200030002000f81f02000000000002
:1053b0000080fa00000006000000fa00e2912000e0
:1053c0006196200080972000d2fd07000080fa003f
:1053d000000006000000fa00b161800000402000db
:1053e00000806000e00f500018003200c1588000bb
:1053f00060092000808f50000d003600c29620000a
:1054000021972000e0972000c2fd07002591200091
:10541000e497200043982000320020003100200053
:1054200010002000b01e020000000000060037003f
:105430000000eb00404c8800404c8000304c88005d
:10544000304c8000204c8800374ca9000080fa00c6
:10545000000006000a00fa00605c80003007980037
:10546000705c8000400798006600470064330200cb
:105470000000000080407800dbcabf0080c0500000
:1054800000ccb30000cf40001e407800ec32020098
:1054900000000000100798001e407800f031020064
:1054a00000000000200798001e009000d0488800ef
:1054b000d0488000904888002e009000a0488800c6
:1054c0002e0090000000ea00c04888000080fa002a
:1054d000000006001800fa00200f9800310f980015
:1054e0003e08900010007800c380de006e00470088
:1054f000010878003e0890000080e8001000780065
:10550000c380de006e004700110098003e08900046
:105510006400400010007800c380de006e00470089
:10552000210098006e00470000017800ae0890004e
:10553000300020006e21020000000000000fea0091
:105540002e0890006600400010017800ee00470031
:10555000680047008201780001017800800078002f
:105560003000200090220200000000006800470088
:10557000800178002e099000ae08900030002000d5
:10558000f81f0200000000002e0890006600400096
:10559000ae089000e6804000910078009e804000b8
:1055a000010878002e089000900078002e089000e6
:1055b000100078000181b9002e0890000080e800fa
:1055c000900078002e0890000080e800100078001d
:1055d0000180b90002014000838148002e0890003c
:1055e00064004000900078002e08900064004000a5
:1055f000100078000180b90002014000838148005a
:105600002e08900066004000900078002e08900060
:1056100066004000100078000180b90002004000e0
:105620008380480010079800210798001e00900012
:10563000ae0090005c3502000000000030079800ca
:105640003e0190002e089000100078000100240018
:105650000100b900801f7800110009004208d8003d
:10566000800078004f0078002e0890000108780034
:105670002e0890000081e800be0190002e089000e6
:105680000080e80010007800010024000100b9004b
:10569000811f7800110009004308d800cf0078006e
:1056a000000978002e08900064014000be019000bf
:1056b0002e089000640040001000780001002400d3
:1056c0000100b900811f7800110009004308d800cb
:1056d000cf007800000978002e0890006601400095
:1056e000be0190002e089000660040001000780077
:1056f000010024000100b900811f78001100090099
:105700004308d800cf007800000978000080fa0034
:10571000000006001400fa00000f9800110f980016
:105720006000b80060079800710798001e0890009c
:105730006600400090007800110798000000eb0020
:10574000000f7800120037006e019000fe019000fb
:105750001e007800000040009e089000008040007d
:10576000900078001e007800000040001e0a9000a3
:1057700000004200100078000180b90002004000e3
:105780008380480060079800710798001e0fe800aa
:105790001e007800e20f5000ebff34006e01900015
:1057a000fe019000f0ff2f00f1ff2000800f51005c
:1057b000818f590004003400f0ff2f00f1ff20001a
:1057c00060079800710798006e019000fe0190003c
:1057d0004318dd00cd10de00810070004310dd00b5
:1057e00060079800710798007e0090000100240077
:1057f0000080500020079800660047009e0190003e
:105800001e099000800078003000200090220200e5
:10581000000000000000eb00000f78000b003700d4
:10582000e60047001e00780000004000610078009c
:10583000c200dd00660147001e0078000000400045
:1058400000004100010878001e0fe8001e007800eb
:10585000e20f5000f2ff34009e0a90001e0a9000f2
:105860008e0990003200200011002000300020003e
:10587000b01e0200000000000000eb00000f7800e6
:105880000c0037001e007800000040008e089000d9
:10589000808040001e007800000040000e0990004b
:1058a00000004100100078004200dd008008780010
:1058b0001e0fe8001e007800e80f5000f1ff3400d2
:1058c0000e089000900078002e009000808040002c
:1058d0000e089000010878000e0890006800400053
:1058e0008e089000e880400011017800ae00900022
:1058f00081004100010878000e089000700040000f
:105900008e089000f080400011017800ae009000f9
:1059100081004100010878000e0890000080e80036
:105920008e0890008180e80011017800e6004700b1
:10593000a100900081005100010878000e0890003d
:10594000640040008e089000e4804000110178005f
:10595000e6004700910090008100410001087800b6
:105960000e089000660040008e089000e68040001f
:1059700011017800e6004700a1009000810041007d
:10598000010878000e0890006a0040008e08900020
:10599000ea80400011017800e6004700910078009d
:1059a00081005100010878000e0890006c00400052
:1059b0008e089000ec80400011017800e60047005e
:1059c0009100900081005100010878000e089000bd
:1059d0006e0040008e089000ee80400011017800bb
:1059e000e60047009100780081004100010878003e
:1059f0000080fa00000006006800fa00404d8000b8
:105a00000000e900404d8800404d8000e00f50004c
:105a100007003a00229120004192200090002000cf
:105a20002e21020000000000a0002000404d880050
:105a3000b16180000020200000806000e00f500075
:105a40006b013200825c8000715c8000605c8000d1
